{
  "contractName": "PositionNFTManager",
  "abi": [
    {
      "inputs": [
        {
          "internalType": "address",
          "name": "_factory",
          "type": "address"
        }
      ],
      "stateMutability": "nonpayable",
      "type": "constructor"
    },
    {
      "anonymous": false,
      "inputs": [
        {
          "indexed": true,
          "internalType": "address",
          "name": "vaultAddress",
          "type": "address"
        },
        {
          "indexed": false,
          "internalType": "int24",
          "name": "lowerTick",
          "type": "int24"
        },
        {
          "indexed": false,
          "internalType": "int24",
          "name": "upperTick",
          "type": "int24"
        },
        {
          "indexed": false,
          "internalType": "uint256",
          "name": "amount0",
          "type": "uint256"
        },
        {
          "indexed": false,
          "internalType": "uint256",
          "name": "amount1",
          "type": "uint256"
        },
        {
          "indexed": false,
          "internalType": "uint128",
          "name": "liquidity",
          "type": "uint128"
        },
        {
          "indexed": false,
          "internalType": "bool",
          "name": "add",
          "type": "bool"
        }
      ],
      "name": "ChangeLiquidity",
      "type": "event"
    },
    {
      "anonymous": false,
      "inputs": [
        {
          "indexed": true,
          "internalType": "address",
          "name": "previousOwner",
          "type": "address"
        },
        {
          "indexed": true,
          "internalType": "address",
          "name": "newOwner",
          "type": "address"
        }
      ],
      "name": "OwnershipTransferred",
      "type": "event"
    },
    {
      "inputs": [],
      "name": "factory",
      "outputs": [
        {
          "internalType": "address",
          "name": "",
          "type": "address"
        }
      ],
      "stateMutability": "view",
      "type": "function"
    },
    {
      "inputs": [
        {
          "internalType": "uint256",
          "name": "tokenId",
          "type": "uint256"
        }
      ],
      "name": "getPendingAmounts",
      "outputs": [
        {
          "internalType": "uint256",
          "name": "pending0",
          "type": "uint256"
        },
        {
          "internalType": "uint256",
          "name": "pending1",
          "type": "uint256"
        }
      ],
      "stateMutability": "view",
      "type": "function"
    },
    {
      "inputs": [],
      "name": "owner",
      "outputs": [
        {
          "internalType": "address",
          "name": "",
          "type": "address"
        }
      ],
      "stateMutability": "view",
      "type": "function"
    },
    {
      "inputs": [],
      "name": "positionManager",
      "outputs": [
        {
          "internalType": "contract INonfungiblePositionManager",
          "name": "",
          "type": "address"
        }
      ],
      "stateMutability": "view",
      "type": "function"
    },
    {
      "inputs": [],
      "name": "renounceOwnership",
      "outputs": [],
      "stateMutability": "nonpayable",
      "type": "function"
    },
    {
      "inputs": [
        {
          "internalType": "address",
          "name": "newOwner",
          "type": "address"
        }
      ],
      "name": "transferOwnership",
      "outputs": [],
      "stateMutability": "nonpayable",
      "type": "function"
    },
    {
      "inputs": [
        {
          "internalType": "address",
          "name": "",
          "type": "address"
        }
      ],
      "name": "whiteList",
      "outputs": [
        {
          "internalType": "bool",
          "name": "",
          "type": "bool"
        }
      ],
      "stateMutability": "view",
      "type": "function"
    },
    {
      "inputs": [
        {
          "internalType": "address",
          "name": "user",
          "type": "address"
        },
        {
          "internalType": "bool",
          "name": "status",
          "type": "bool"
        }
      ],
      "name": "updateWhiteList",
      "outputs": [],
      "stateMutability": "nonpayable",
      "type": "function"
    },
    {
      "inputs": [
        {
          "internalType": "uint256",
          "name": "tokenId",
          "type": "uint256"
        },
        {
          "internalType": "uint8",
          "name": "_performanceFee",
          "type": "uint8"
        }
      ],
      "name": "getTotalAmounts",
      "outputs": [
        {
          "internalType": "uint256",
          "name": "",
          "type": "uint256"
        },
        {
          "internalType": "uint256",
          "name": "",
          "type": "uint256"
        }
      ],
      "stateMutability": "view",
      "type": "function"
    },
    {
      "inputs": [
        {
          "internalType": "uint256",
          "name": "tokenId",
          "type": "uint256"
        },
        {
          "internalType": "uint256",
          "name": "balance0",
          "type": "uint256"
        },
        {
          "internalType": "uint256",
          "name": "balance1",
          "type": "uint256"
        }
      ],
      "name": "addAll",
      "outputs": [
        {
          "internalType": "uint256",
          "name": "amount0",
          "type": "uint256"
        },
        {
          "internalType": "uint256",
          "name": "amount1",
          "type": "uint256"
        },
        {
          "internalType": "uint128",
          "name": "liquidity",
          "type": "uint128"
        }
      ],
      "stateMutability": "nonpayable",
      "type": "function"
    },
    {
      "inputs": [
        {
          "internalType": "address",
          "name": "poolAddress",
          "type": "address"
        },
        {
          "internalType": "uint256",
          "name": "balance0",
          "type": "uint256"
        },
        {
          "internalType": "uint256",
          "name": "balance1",
          "type": "uint256"
        },
        {
          "internalType": "int24",
          "name": "lowerTick",
          "type": "int24"
        },
        {
          "internalType": "int24",
          "name": "upperTick",
          "type": "int24"
        },
        {
          "internalType": "address",
          "name": "to",
          "type": "address"
        }
      ],
      "name": "mintAll",
      "outputs": [
        {
          "internalType": "uint256",
          "name": "tokenId",
          "type": "uint256"
        },
        {
          "internalType": "uint256",
          "name": "amount0",
          "type": "uint256"
        },
        {
          "internalType": "uint256",
          "name": "amount1",
          "type": "uint256"
        },
        {
          "internalType": "uint128",
          "name": "liquidity",
          "type": "uint128"
        }
      ],
      "stateMutability": "nonpayable",
      "type": "function"
    },
    {
      "inputs": [
        {
          "internalType": "uint256",
          "name": "tokenId",
          "type": "uint256"
        },
        {
          "internalType": "uint128",
          "name": "_liquidity",
          "type": "uint128"
        }
      ],
      "name": "burn",
      "outputs": [
        {
          "internalType": "uint256",
          "name": "amount0",
          "type": "uint256"
        },
        {
          "internalType": "uint256",
          "name": "amount1",
          "type": "uint256"
        },
        {
          "internalType": "uint256",
          "name": "fee0",
          "type": "uint256"
        },
        {
          "internalType": "uint256",
          "name": "fee1",
          "type": "uint256"
        }
      ],
      "stateMutability": "nonpayable",
      "type": "function"
    },
    {
      "inputs": [
        {
          "internalType": "uint256",
          "name": "tokenId",
          "type": "uint256"
        }
      ],
      "name": "burnAll",
      "outputs": [
        {
          "internalType": "uint256",
          "name": "amount0",
          "type": "uint256"
        },
        {
          "internalType": "uint256",
          "name": "amount1",
          "type": "uint256"
        },
        {
          "internalType": "uint256",
          "name": "fee0",
          "type": "uint256"
        },
        {
          "internalType": "uint256",
          "name": "fee1",
          "type": "uint256"
        }
      ],
      "stateMutability": "nonpayable",
      "type": "function"
    }
  ],
  "bytecode": "0x60a06040523480156200001157600080fd5b5060405162002fbc38038062002fbc8339810160408190526200003491620000a7565b6001600160601b0319606082901b16608052600062000052620000a3565b600080546001600160a01b0319166001600160a01b0383169081178255604051929350917f8be0079c531659141344cd1fd0a4f28419497f9722a3daafe3b4186f6b6457e0908290a35050620000d7565b3390565b600060208284031215620000b9578081fd5b81516001600160a01b0381168114620000d0578182fd5b9392505050565b60805160601c612ebd620000ff6000398061052152806109ca52806116245250612ebd6000f3fe608060405234801561001057600080fd5b50600436106100cf5760003560e01c8063715018a61161008c578063ac1d060911610066578063ac1d0609146101b1578063c45a0155146101c4578063c805be6c146101cc578063f2fde38b146101ee576100cf565b8063715018a61461018a578063791b98bc146101945780638da5cb5b146101a9576100cf565b80632294447f146100d4578063360da4bc14610100578063368643fb14610121578063369a768314610134578063372c12b1146101575780636dc2794414610177575b600080fd5b6100e76100e23660046127b0565b610201565b6040516100f79493929190612d9f565b60405180910390f35b61011361010e3660046129fb565b610504565b6040516100f7929190612d72565b61011361012f36600461291c565b610583565b61014761014236600461291c565b610619565b6040516100f79493929190612dc3565b61016a610165366004612740565b6106f5565b6040516100f79190612b48565b61014761018536600461294c565b61070a565b610192610844565b005b61019c610902565b6040516100f79190612b1b565b61019c61091a565b6101926101bf366004612778565b610929565b61019c6109c8565b6101df6101da3660046129d0565b6109ec565b6040516100f793929190612d80565b6101926101fc366004612740565b610b83565b6000808080896102148189898d8d610c97565b91506001600160801b038216156104f657610230818b8b610d3b565b61023b8b8b8b610e07565b6000604051806101600160405280836001600160a01b0316630dfe16816040518163ffffffff1660e01b815260040160206040518083038186803b15801561028257600080fd5b505afa158015610296573d6000803e3d6000fd5b505050506040513d601f19601f820116820180604052508101906102ba919061275c565b6001600160a01b03168152602001836001600160a01b031663d21220a76040518163ffffffff1660e01b815260040160206040518083038186803b15801561030157600080fd5b505afa158015610315573d6000803e3d6000fd5b505050506040513d601f19601f82011682018060405250810190610339919061275c565b6001600160a01b03168152602001836001600160a01b031663ddca3f436040518163ffffffff1660e01b815260040160206040518083038186803b15801561038057600080fd5b505afa158015610394573d6000803e3d6000fd5b505050506040513d601f19601f820116820180604052508101906103b89190612902565b62ffffff1681526020018a60020b81526020018960020b81526020018c81526020018b81526020016000815260200160008152602001886001600160a01b0316815260200142815250905073c36442b4a4522e871399cd717abdd847ab11fe886001600160a01b03166388316456826040518263ffffffff1660e01b81526004016104439190612cbb565b608060405180830381600087803b15801561045d57600080fd5b505af1158015610471573d6000803e3d6000fd5b505050506040513d601f19601f820116820180604052508101906104959190612970565b929850965090945092506104a886611026565b336001600160a01b03167f077c88d00a255bed8a8fc3283c4b08a1e6fd13815a56ccc176fe9e42230c65ce8a8a88888860016040516104ec96959493929190612b53565b60405180910390a2505b509650965096509692505050565b60008083156105755760006105188561117c565b9050600061055c7f000000000000000000000000000000000000000000000000000000000000000061055784600001518560200151866040015161138b565b6113ed565b905061056a818684896114d1565b93509350505061057c565b5060009050805b9250929050565b6000806000806105928561160a565b915091506000806105ac8484606001518560800151611661565b915091506105e18361010001516105db8560c0015185038660a001516001600160801b0316600160801b6116db565b9061178a565b955061060e8361012001516105db8560e0015184038660a001516001600160801b0316600160801b6116db565b945050505050915091565b3360009081526001602052604081205481908190819060ff168061063c57503330145b6106615760405162461bcd60e51b815260040161065890612bb3565b60405180910390fd5b600061066c866117e4565b5050905061067a868261070a565b604051630852cd8d60e31b81529398509196509450925073c36442b4a4522e871399cd717abdd847ab11fe88906342966c68906106bb908990600401612d69565b600060405180830381600087803b1580156106d557600080fd5b505af11580156106e9573d6000803e3d6000fd5b50505050509193509193565b60016020526000908152604090205460ff1681565b3360009081526001602052604081205481908190819060ff168061072d57503330145b6107495760405162461bcd60e51b815260040161065890612bb3565b6001600160801b0385161561083b576040516331a9108f60e11b815260009073c36442b4a4522e871399cd717abdd847ab11fe8890636352211e90610792908a90600401612d69565b60206040518083038186803b1580156107aa57600080fd5b505afa1580156107be573d6000803e3d6000fd5b505050506040513d601f19601f820116820180604052508101906107e2919061275c565b9050336001600160a01b0382161461080c5760405162461bcd60e51b815260040161065890612bce565b6108168787611890565b909350915061082e87826001600160801b03806119bb565b9095509350509083039082035b92959194509250565b61084c611a87565b6001600160a01b031661085d61091a565b6001600160a01b0316146108b8576040805162461bcd60e51b815260206004820181905260248201527f4f776e61626c653a2063616c6c6572206973206e6f7420746865206f776e6572604482015290519081900360640190fd5b600080546040516001600160a01b03909116907f8be0079c531659141344cd1fd0a4f28419497f9722a3daafe3b4186f6b6457e0908390a3600080546001600160a01b0319169055565b73c36442b4a4522e871399cd717abdd847ab11fe8881565b6000546001600160a01b031690565b610931611a87565b6001600160a01b031661094261091a565b6001600160a01b03161461099d576040805162461bcd60e51b815260206004820181905260248201527f4f776e61626c653a2063616c6c6572206973206e6f7420746865206f776e6572604482015290519081900360640190fd5b6001600160a01b03919091166000908152600160205260409020805460ff1916911515919091179055565b7f000000000000000000000000000000000000000000000000000000000000000081565b6000806000808611610a105760405162461bcd60e51b815260040161065890612b8c565b600080610a1c8861160a565b91509150610a3582826060015183608001518a8a610c97565b92506001600160801b03831615610b7857610a5a816000015182602001518989611a8b565b610a65828888610e07565b6040805160c0810182528981526020810189905280820188905260006060820181905260808201524260a0820152905163219f5d1760e01b815273c36442b4a4522e871399cd717abdd847ab11fe889063219f5d1790610ac9908490600401612c77565b606060405180830381600087803b158015610ae357600080fd5b505af1158015610af7573d6000803e3d6000fd5b505050506040513d601f19601f82011682018060405250810190610b1b919061283b565b9097509550610b2b905089611026565b6060820151608083015160405133927f077c88d00a255bed8a8fc3283c4b08a1e6fd13815a56ccc176fe9e42230c65ce92610b6e928b908b908b90600190612b53565b60405180910390a2505b505093509350939050565b610b8b611a87565b6001600160a01b0316610b9c61091a565b6001600160a01b031614610bf7576040805162461bcd60e51b815260206004820181905260248201527f4f776e61626c653a2063616c6c6572206973206e6f7420746865206f776e6572604482015290519081900360640190fd5b6001600160a01b038116610c3c5760405162461bcd60e51b8152600401808060200182810382526026815260200180612e386026913960400191505060405180910390fd5b600080546040516001600160a01b03808516939216917f8be0079c531659141344cd1fd0a4f28419497f9722a3daafe3b4186f6b6457e091a3600080546001600160a01b0319166001600160a01b0392909216919091179055565b600080866001600160a01b0316633850c7bd6040518163ffffffff1660e01b815260040160e06040518083038186803b158015610cd357600080fd5b505afa158015610ce7573d6000803e3d6000fd5b505050506040513d601f19601f82011682018060405250810190610d0b9190612871565b5050505050509050610d3081610d2088611ab5565b610d2988611ab5565b8787611de7565b979650505050505050565b610dc3333084866001600160a01b0316630dfe16816040518163ffffffff1660e01b815260040160206040518083038186803b158015610d7a57600080fd5b505afa158015610d8e573d6000803e3d6000fd5b505050506040513d601f19601f82011682018060405250810190610db2919061275c565b6001600160a01b0316929190611eab565b610e02333083866001600160a01b031663d21220a76040518163ffffffff1660e01b815260040160206040518083038186803b158015610d7a57600080fd5b505050565b828215610f1457806001600160a01b0316630dfe16816040518163ffffffff1660e01b815260040160206040518083038186803b158015610e4757600080fd5b505afa158015610e5b573d6000803e3d6000fd5b505050506040513d601f19601f82011682018060405250810190610e7f919061275c565b6001600160a01b031663095ea7b373c36442b4a4522e871399cd717abdd847ab11fe88856040518363ffffffff1660e01b8152600401610ec0929190612b2f565b602060405180830381600087803b158015610eda57600080fd5b505af1158015610eee573d6000803e3d6000fd5b505050506040513d601f19601f82011682018060405250810190610f12919061281f565b505b811561102057806001600160a01b031663d21220a76040518163ffffffff1660e01b815260040160206040518083038186803b158015610f5357600080fd5b505afa158015610f67573d6000803e3d6000fd5b505050506040513d601f19601f82011682018060405250810190610f8b919061275c565b6001600160a01b031663095ea7b373c36442b4a4522e871399cd717abdd847ab11fe88846040518363ffffffff1660e01b8152600401610fcc929190612b2f565b602060405180830381600087803b158015610fe657600080fd5b505af1158015610ffa573d6000803e3d6000fd5b505050506040513d601f19601f8201168201806040525081019061101e919061281f565b505b50505050565b60006110318261160a565b805160208201516040516370a0823160e01b8152929450909250906000906001600160a01b038416906370a082319061106e903090600401612b1b565b60206040518083038186803b15801561108657600080fd5b505afa15801561109a573d6000803e3d6000fd5b505050506040513d601f19601f820116820180604052508101906110be9190612934565b90506000826001600160a01b03166370a08231306040518263ffffffff1660e01b81526004016110ee9190612b1b565b60206040518083038186803b15801561110657600080fd5b505afa15801561111a573d6000803e3d6000fd5b505050506040513d601f19601f8201168201806040525081019061113e9190612934565b9050811561115a5761115a6001600160a01b0385163384611f05565b8015611174576111746001600160a01b0384163383611f05565b505050505050565b611184612686565b60008060008060008060008060008073c36442b4a4522e871399cd717abdd847ab11fe886001600160a01b03166399fbab888d6040518263ffffffff1660e01b8152600401808281526020019150506101806040518083038186803b1580156111ec57600080fd5b505afa158015611200573d6000803e3d6000fd5b505050506040513d61018081101561121757600080fd5b810190808051906020019092919080519060200190929190805190602001909291908051906020019092919080519060200190929190805190602001909291908051906020019092919080519060200190929190805190602001909291908051906020019092919080519060200190929190805190602001909291905050506001600160801b03169b506001600160801b03169b509b509b509b509b509b509b509b509b505050898b600001906001600160a01b031690816001600160a01b031681525050888b602001906001600160a01b031690816001600160a01b031681525050878b6040019062ffffff16908162ffffff1681525050868b6060019060020b908160020b81525050858b6080019060020b908160020b81525050848b60a001906001600160801b031690816001600160801b031681525050838b60c0018181525050828b60e0018181525050818b610100018181525050808b61012001818152505050505050505050505050919050565b6113936126da565b826001600160a01b0316846001600160a01b031611156113b1579192915b6040518060600160405280856001600160a01b03168152602001846001600160a01b031681526020018362ffffff1681525090505b9392505050565b600081602001516001600160a01b031682600001516001600160a01b03161061141557600080fd5b50805160208083015160409384015184516001600160a01b0394851681850152939091168385015262ffffff166060808401919091528351808403820181526080840185528051908301206001600160f81b031960a085015294901b6bffffffffffffffffffffffff191660a183015260b58201939093527fe34f199b19b2b4f47f68442619d555527d244f78a3297ea89325f843f87b8b5460d5808301919091528251808303909101815260f5909101909152805191012090565b60008060008460a001516001600160801b031611156116015760008690506000816001600160a01b0316633850c7bd6040518163ffffffff1660e01b815260040160e06040518083038186803b15801561152a57600080fd5b505afa15801561153e573d6000803e3d6000fd5b505050506040513d601f19601f820116820180604052508101906115629190612871565b50505050505090506115928161157b8860600151611ab5565b6115888960800151611ab5565b8960a00151611f57565b90945092506000806115a387610583565b90925090506115b2868361178a565b95506115be858261178a565b945060ff8916156115fc576115e06115d98360ff8c16611ff2565b8790612059565b95506115f96115f28260ff8c16611ff2565b8690612059565b94505b505050505b94509492505050565b6000611614612686565b61161d8361117c565b905061165a7f000000000000000000000000000000000000000000000000000000000000000061055783600001518460200151856040015161138b565b9150915091565b60008084818080611671846120b6565b925092509250600080611684868b612215565b915091508960020b8560020b121561169d579083039082035b6000806116aa888c612215565b915091508a60020b8760020b126116c2579085039084035b92909403939093039a9290910303975095505050505050565b6000808060001985870986860292508281109083900303905080611711576000841161170657600080fd5b5082900490506113e6565b80841161171d57600080fd5b6000848688096000868103871696879004966002600389028118808a02820302808a02820302808a02820302808a02820302808a02820302808a02909103029181900381900460010186841190950394909402919094039290920491909117919091029150509392505050565b6000828201838110156113e6576040805162461bcd60e51b815260206004820152601b60248201527f536166654d6174683a206164646974696f6e206f766572666c6f770000000000604482015290519081900360640190fd5b6000808083156118895760405163133f757160e31b815273c36442b4a4522e871399cd717abdd847ab11fe88906399fbab8890611825908790600401612d69565b6101806040518083038186803b15801561183e57600080fd5b505afa158015611852573d6000803e3d6000fd5b505050506040513d601f19601f820116820180604052508101906118769190612a1f565b50929c50939a5091985050505050505050505b9193909250565b6040805160a0810182528381526001600160801b03831660208201526000818301819052606082018190524260808301529151630624e65f60e11b815282919073c36442b4a4522e871399cd717abdd847ab11fe8890630c49ccbe906118fa908490600401612c34565b6040805180830381600087803b15801561191357600080fd5b505af1158015611927573d6000803e3d6000fd5b505050506040513d601f19601f8201168201806040525081019061194b91906129ad565b9093509150600061195b8661160a565b915050336001600160a01b03167f077c88d00a255bed8a8fc3283c4b08a1e6fd13815a56ccc176fe9e42230c65ce8260600151836080015187878a60006040516119aa96959493929190612b53565b60405180910390a250509250929050565b604080516080810182528581526001600160a01b03851660208201526001600160801b038085168284015283166060820152905163fc6f786560e01b8152600091829173c36442b4a4522e871399cd717abdd847ab11fe889063fc6f786590611a28908490600401612bf1565b6040805180830381600087803b158015611a4157600080fd5b505af1158015611a55573d6000803e3d6000fd5b505050506040513d601f19601f82011682018060405250810190611a7991906129ad565b909890975095505050505050565b3390565b611aa06001600160a01b038516333085611eab565b6110206001600160a01b038416333084611eab565b60008060008360020b12611acc578260020b611ad4565b8260020b6000035b9050620d89e8811115611b12576040805162461bcd60e51b81526020600482015260016024820152601560fa1b604482015290519081900360640190fd5b600060018216611b2657600160801b611b38565b6ffffcb933bd6fad37aa2d162d1a5940015b70ffffffffffffffffffffffffffffffffff1690506002821615611b6c576ffff97272373d413259a46990580e213a0260801c5b6004821615611b8b576ffff2e50f5f656932ef12357cf3c7fdcc0260801c5b6008821615611baa576fffe5caca7e10e4e61c3624eaa0941cd00260801c5b6010821615611bc9576fffcb9843d60f6159c9db58835c9266440260801c5b6020821615611be8576fff973b41fa98c081472e6896dfb254c00260801c5b6040821615611c07576fff2ea16466c96a3843ec78b326b528610260801c5b6080821615611c26576ffe5dee046a99a2a811c461f1969c30530260801c5b610100821615611c46576ffcbe86c7900a88aedcffc83b479aa3a40260801c5b610200821615611c66576ff987a7253ac413176f2b074cf7815e540260801c5b610400821615611c86576ff3392b0822b70005940c7a398e4b70f30260801c5b610800821615611ca6576fe7159475a2c29b7443b29c7fa6e889d90260801c5b611000821615611cc6576fd097f3bdfd2022b8845ad8f792aa58250260801c5b612000821615611ce6576fa9f746462d870fdf8a65dc1f90e061e50260801c5b614000821615611d06576f70d869a156d2a1b890bb3df62baf32f70260801c5b618000821615611d26576f31be135f97d08fd981231505542fcfa60260801c5b62010000821615611d47576f09aa508b5b7a84e1c677de54f3e99bc90260801c5b62020000821615611d67576e5d6af8dedb81196699c329225ee6040260801c5b62040000821615611d86576d2216e584f5fa1ea926041bedfe980260801c5b62080000821615611da3576b048a170391f7dc42444e8fa20260801c5b60008460020b1315611dbe578060001981611dba57fe5b0490505b640100000000810615611dd2576001611dd5565b60005b60ff16602082901c0192505050919050565b6000836001600160a01b0316856001600160a01b03161115611e07579293925b846001600160a01b0316866001600160a01b031611611e3257611e2b8585856122a2565b9050611ea2565b836001600160a01b0316866001600160a01b03161015611e94576000611e598786866122a2565b90506000611e68878986612305565b9050806001600160801b0316826001600160801b031610611e895780611e8b565b815b92505050611ea2565b611e9f858584612305565b90505b95945050505050565b604080516001600160a01b0380861660248301528416604482015260648082018490528251808303909101815260849091019091526020810180516001600160e01b03166323b872dd60e01b17905261102090859061234a565b604080516001600160a01b038416602482015260448082018490528251808303909101815260649091019091526020810180516001600160e01b031663a9059cbb60e01b179052610e0290849061234a565b600080836001600160a01b0316856001600160a01b03161115611f78579293925b846001600160a01b0316866001600160a01b031611611fa357611f9c8585856123fb565b9150611601565b836001600160a01b0316866001600160a01b03161015611fdc57611fc88685856123fb565b9150611fd5858785612464565b9050611601565b611fe7858585612464565b905094509492505050565b6000808211612048576040805162461bcd60e51b815260206004820152601a60248201527f536166654d6174683a206469766973696f6e206279207a65726f000000000000604482015290519081900360640190fd5b81838161205157fe5b049392505050565b6000828211156120b0576040805162461bcd60e51b815260206004820152601e60248201527f536166654d6174683a207375627472616374696f6e206f766572666c6f770000604482015290519081900360640190fd5b50900390565b600080600080846001600160a01b0316633850c7bd6040518163ffffffff1660e01b815260040160e06040518083038186803b1580156120f557600080fd5b505afa158015612109573d6000803e3d6000fd5b505050506040513d60e081101561211f57600080fd5b506020908101516040805163f305839960e01b815290519193506000926001600160a01b0389169263f3058399926004808201939291829003018186803b15801561216957600080fd5b505afa15801561217d573d6000803e3d6000fd5b505050506040513d602081101561219357600080fd5b505160408051634614131960e01b815290519192506000916001600160a01b038916916346141319916004808301926020929190829003018186803b1580156121db57600080fd5b505afa1580156121ef573d6000803e3d6000fd5b505050506040513d602081101561220557600080fd5b5051929791965091945092505050565b600080836001600160a01b031663f30dba93846040518263ffffffff1660e01b8152600401808260020b81526020019150506101006040518083038186803b15801561226057600080fd5b505afa158015612274573d6000803e3d6000fd5b505050506040513d61010081101561228b57600080fd5b506040810151606090910151909590945092505050565b6000826001600160a01b0316846001600160a01b031611156122c2579192915b60006122e5856001600160a01b0316856001600160a01b0316600160601b6116db565b9050611ea261230084838888036001600160a01b03166116db565b6124a7565b6000826001600160a01b0316846001600160a01b03161115612325579192915b61234261230083600160601b8787036001600160a01b03166116db565b949350505050565b600061239f826040518060400160405280602081526020017f5361666545524332303a206c6f772d6c6576656c2063616c6c206661696c6564815250856001600160a01b03166124c29092919063ffffffff16565b805190915015610e02578080602001905160208110156123be57600080fd5b5051610e025760405162461bcd60e51b815260040180806020018281038252602a815260200180612e5e602a913960400191505060405180910390fd5b6000826001600160a01b0316846001600160a01b0316111561241b579192915b836001600160a01b0316612454606060ff16846001600160801b0316901b8686036001600160a01b0316866001600160a01b03166116db565b8161245b57fe5b04949350505050565b6000826001600160a01b0316846001600160a01b03161115612484579192915b612342826001600160801b03168585036001600160a01b0316600160601b6116db565b806001600160801b03811681146124bd57600080fd5b919050565b60606123428484600085856124d6856125dc565b612527576040805162461bcd60e51b815260206004820152601d60248201527f416464726573733a2063616c6c20746f206e6f6e2d636f6e7472616374000000604482015290519081900360640190fd5b600080866001600160a01b031685876040518082805190602001908083835b602083106125655780518252601f199092019160209182019101612546565b6001836020036101000a03801982511681845116808217855250505050505090500191505060006040518083038185875af1925050503d80600081146125c7576040519150601f19603f3d011682016040523d82523d6000602084013e6125cc565b606091505b5091509150610d308282866125e2565b3b151590565b606083156125f15750816113e6565b8251156126015782518084602001fd5b8160405162461bcd60e51b81526004018080602001828103825283818151815260200191508051906020019080838360005b8381101561264b578181015183820152602001612633565b50505050905090810190601f1680156126785780820380516001836020036101000a031916815260200191505b509250505060405180910390fd5b6040805161014081018252600080825260208201819052918101829052606081018290526080810182905260a0810182905260c0810182905260e08101829052610100810182905261012081019190915290565b604080516060810182526000808252602082018190529181019190915290565b80516124bd81612dde565b80516124bd81612e04565b80516124bd81612e13565b805161ffff811681146124bd57600080fd5b805162ffffff811681146124bd57600080fd5b600060208284031215612751578081fd5b81356113e681612dde565b60006020828403121561276d578081fd5b81516113e681612dde565b6000806040838503121561278a578081fd5b823561279581612dde565b915060208301356127a581612df6565b809150509250929050565b60008060008060008060c087890312156127c8578182fd5b86356127d381612dde565b9550602087013594506040870135935060608701356127f181612e04565b9250608087013561280181612e04565b915060a087013561281181612dde565b809150509295509295509295565b600060208284031215612830578081fd5b81516113e681612df6565b60008060006060848603121561284f578283fd5b835161285a81612e13565b602085015160409095015190969495509392505050565b600080600080600080600060e0888a03121561288b578081fd5b875161289681612dde565b60208901519097506128a781612e04565b95506128b56040890161271b565b94506128c36060890161271b565b93506128d16080890161271b565b925060a08801516128e181612e28565b60c08901519092506128f281612df6565b8091505092959891949750929550565b600060208284031215612913578081fd5b6113e68261272d565b60006020828403121561292d578081fd5b5035919050565b600060208284031215612945578081fd5b5051919050565b6000806040838503121561295e578182fd5b8235915060208301356127a581612e13565b60008060008060808587031215612985578182fd5b84519350602085015161299781612e13565b6040860151606090960151949790965092505050565b600080604083850312156129bf578182fd5b505080516020909101519092909150565b6000806000606084860312156129e4578081fd5b505081359360208301359350604090920135919050565b60008060408385031215612a0d578182fd5b8235915060208301356127a581612e28565b6000806000806000806000806000806000806101808d8f031215612a41578586fd5b8c516bffffffffffffffffffffffff81168114612a5c578687fd5b9b50612a6a60208e016126fa565b9a50612a7860408e016126fa565b9950612a8660608e016126fa565b9850612a9460808e0161272d565b9750612aa260a08e01612705565b9650612ab060c08e01612705565b9550612abe60e08e01612710565b94506101008d015193506101208d01519250612add6101408e01612710565b9150612aec6101608e01612710565b90509295989b509295989b509295989b565b6001600160a01b03169052565b60020b9052565b62ffffff169052565b6001600160a01b0391909116815260200190565b6001600160a01b03929092168252602082015260400190565b901515815260200190565b600296870b81529490950b6020850152604084019290925260608301526001600160801b0316608082015290151560a082015260c00190565b6020808252600d908201526c139195081b9bdd08195e1a5cdd609a1b604082015260600190565b6020808252600190820152603160f81b604082015260600190565b6020808252600990820152683737ba1037bbb732b960b91b604082015260600190565b815181526020808301516001600160a01b0316908201526040808301516001600160801b0390811691830191909152606092830151169181019190915260800190565b600060a082019050825182526001600160801b03602084015116602083015260408301516040830152606083015160608301526080830151608083015292915050565b600060c082019050825182526020830151602083015260408301516040830152606083015160608301526080830151608083015260a083015160a083015292915050565b600061016082019050612ccf828451612afe565b6020830151612ce16020840182612afe565b506040830151612cf46040840182612b12565b506060830151612d076060840182612b0b565b506080830151612d1a6080840182612b0b565b5060a083015160a083015260c083015160c083015260e083015160e083015261010080840151818401525061012080840151612d5882850182612afe565b505061014092830151919092015290565b90815260200190565b918252602082015260400190565b92835260208301919091526001600160801b0316604082015260600190565b938452602084019290925260408301526001600160801b0316606082015260800190565b93845260208401929092526040830152606082015260800190565b6001600160a01b0381168114612df357600080fd5b50565b8015158114612df357600080fd5b8060020b8114612df357600080fd5b6001600160801b0381168114612df357600080fd5b60ff81168114612df357600080fdfe4f776e61626c653a206e6577206f776e657220697320746865207a65726f20616464726573735361666545524332303a204552433230206f7065726174696f6e20646964206e6f742073756363656564a2646970667358221220bb438e85cc17adba35dabfbc3866dcdfe10fbeaa814c3dc9b729788f4b96add364736f6c63430007060033",
  "immutableReferences": {
    "7838": [
      {
        "length": 32,
        "start": 1313
      },
      {
        "length": 32,
        "start": 2506
      },
      {
        "length": 32,
        "start": 5668
      }
    ]
  },
  "source": "// SPDX-License-Identifier: MIT\n\npragma solidity ^0.7.6;\npragma abicoder v2;\n\nimport \"@uniswap/v3-periphery/contracts/libraries/LiquidityAmounts.sol\";\nimport \"@uniswap/v3-core/contracts/libraries/TickMath.sol\";\nimport \"@uniswap/v3-core/contracts/libraries/FullMath.sol\";\nimport \"@uniswap/v3-core/contracts/libraries/FixedPoint128.sol\";\nimport \"@uniswap/v3-core/contracts/interfaces/IUniswapV3Pool.sol\";\nimport \"@uniswap/v3-periphery/contracts/interfaces/INonfungiblePositionManager.sol\";\nimport \"@openzeppelin/contracts/access/Ownable.sol\";\nimport \"@openzeppelin/contracts/math/SafeMath.sol\";\nimport \"@openzeppelin/contracts/token/ERC20/SafeERC20.sol\";\nimport \"./UniSwapV3Pending.sol\";\nimport \"../interfaces/PositionNFTUtil.sol\";\n\ncontract PositionNFTManager is UniSwapV3Pending, Ownable {\n    using SafeERC20 for IERC20;\n    using SafeMath for uint256;\n    using PositionNFTUtil for PositionNFTUtil.Position;\n\n    mapping(address => bool) public whiteList;\n\n    constructor(address _factory) UniSwapV3Pending(_factory) {}\n\n    modifier onlyWhiteList() {\n        require(whiteList[msg.sender] || msg.sender == address(this), \"1\");\n        _;\n    }\n\n    /* ========== OWNER ========== */\n\n    function updateWhiteList(address user, bool status) external onlyOwner {\n        whiteList[user] = status;\n    }\n\n    /* ========== VIEW ========== */\n\n    function getTotalAmounts(uint256 tokenId, uint8 _performanceFee)\n        external\n        view\n        returns (uint256, uint256)\n    {\n        if (tokenId > 0) {\n            NftInfo memory nftInfo = getNftInfo(tokenId);\n            address poolAddress = PoolAddress.computeAddress(\n                factory,\n                PoolAddress.getPoolKey(\n                    nftInfo.token0,\n                    nftInfo.token1,\n                    nftInfo.fee\n                )\n            );\n            return\n                _getTotalAmounts(\n                    poolAddress,\n                    _performanceFee,\n                    nftInfo,\n                    tokenId\n                );\n        } else {\n            return (0, 0);\n        }\n    }\n\n    function _getTotalAmounts(\n        address poolAddress,\n        uint8 _performanceFee,\n        NftInfo memory nftInfo,\n        uint256 tokenId\n    ) private view returns (uint256 total0, uint256 total1) {\n        if (nftInfo.liquidity > 0) {\n            // Pool OBJ\n            IUniswapV3Pool pool = IUniswapV3Pool(poolAddress);\n            (uint160 sqrtRatioX96, , , , , , ) = pool.slot0();\n            (total0, total1) = LiquidityAmounts.getAmountsForLiquidity(\n                sqrtRatioX96,\n                TickMath.getSqrtRatioAtTick(nftInfo.lowerTick),\n                TickMath.getSqrtRatioAtTick(nftInfo.upperTick),\n                nftInfo.liquidity\n            );\n            // get Pending\n            (uint256 pending0, uint256 pending1) = getPendingAmounts(tokenId);\n            total0 = total0.add(pending0);\n            total1 = total1.add(pending1);\n            if (_performanceFee > 0) {\n                total0 = total0.sub(pending0.div(_performanceFee));\n                total1 = total1.sub(pending1.div(_performanceFee));\n            }\n        }\n    }\n\n    /* ========== BASE FUNCTION ========== */\n\n    /// @dev Low Level\n    function _burnLiquidity(uint256 tokenId, uint128 _liquidity)\n        internal\n        returns (uint256 amount0, uint256 amount1)\n    {\n        INonfungiblePositionManager.DecreaseLiquidityParams\n            memory param = INonfungiblePositionManager.DecreaseLiquidityParams({\n                tokenId: tokenId,\n                liquidity: _liquidity,\n                amount0Min: 0,\n                amount1Min: 0,\n                deadline: block.timestamp\n            });\n        (amount0, amount1) = positionManager.decreaseLiquidity(param);\n        (, NftInfo memory nftInfo) = _positionInfo(tokenId);\n        emit ChangeLiquidity(\n            msg.sender,\n            nftInfo.lowerTick,\n            nftInfo.upperTick,\n            amount0,\n            amount1,\n            _liquidity,\n            false\n        );\n    }\n\n    /// @dev Low Level\n    function _collect(\n        uint256 tokenId,\n        address to,\n        uint128 amount0,\n        uint128 amount1\n    ) internal returns (uint256 collect0, uint256 collect1) {\n        INonfungiblePositionManager.CollectParams\n            memory params = INonfungiblePositionManager.CollectParams({\n                tokenId: tokenId,\n                recipient: to,\n                amount0Max: amount0,\n                amount1Max: amount1\n            });\n        (collect0, collect1) = positionManager.collect(params);\n    }\n\n    /* ========== SENIOR FUNCTION ========== */\n\n    /// @dev amount0Min & amount1Min avoid revert of uniswapV3.mint()\n    function addAll(\n        uint256 tokenId,\n        uint256 balance0,\n        uint256 balance1\n    )\n        external\n        returns (\n            uint256 amount0,\n            uint256 amount1,\n            uint128 liquidity\n        )\n    {\n        require(tokenId > 0, \"NFT not exist\");\n        (address poolAddress, NftInfo memory nftInfo) = _positionInfo(tokenId);\n        liquidity = getLiquidityForAmounts(\n            IUniswapV3Pool(poolAddress),\n            nftInfo.lowerTick,\n            nftInfo.upperTick,\n            balance0,\n            balance1\n        );\n        if (liquidity > 0) {\n            _pay(nftInfo.token0, nftInfo.token1, balance0, balance1);\n            _approve(poolAddress, balance0, balance1);\n            INonfungiblePositionManager.IncreaseLiquidityParams\n                memory params = INonfungiblePositionManager\n                    .IncreaseLiquidityParams({\n                        tokenId: tokenId,\n                        amount0Desired: balance0,\n                        amount1Desired: balance1,\n                        amount0Min: 0,\n                        amount1Min: 0,\n                        deadline: block.timestamp\n                    });\n            (, amount0, amount1) = positionManager.increaseLiquidity(params);\n            _back(tokenId);\n            emit ChangeLiquidity(\n                msg.sender,\n                nftInfo.lowerTick,\n                nftInfo.upperTick,\n                amount0,\n                amount1,\n                liquidity,\n                true\n            );\n        }\n    }\n\n    /// @dev amount0Min & amount1Min avoid revert of uniswapV3.mint()\n    function mintAll(\n        address poolAddress,\n        uint256 balance0,\n        uint256 balance1,\n        int24 lowerTick,\n        int24 upperTick,\n        address to\n    )\n        external\n        returns (\n            uint256 tokenId,\n            uint256 amount0,\n            uint256 amount1,\n            uint128 liquidity\n        )\n    {\n        IUniswapV3Pool pool = IUniswapV3Pool(poolAddress);\n        liquidity = getLiquidityForAmounts(\n            pool,\n            lowerTick,\n            upperTick,\n            balance0,\n            balance1\n        );\n        if (liquidity > 0) {\n            _mintPay(pool, balance0, balance1);\n            _approve(poolAddress, balance0, balance1);\n            INonfungiblePositionManager.MintParams\n                memory mintParams = INonfungiblePositionManager.MintParams({\n                    token0: pool.token0(),\n                    token1: pool.token1(),\n                    fee: pool.fee(),\n                    tickLower: lowerTick,\n                    tickUpper: upperTick,\n                    amount0Desired: balance0,\n                    amount1Desired: balance1,\n                    amount0Min: 0,\n                    amount1Min: 0,\n                    recipient: to,\n                    deadline: block.timestamp\n                });\n            (tokenId, liquidity, amount0, amount1) = positionManager.mint(\n                mintParams\n            );\n            _back(tokenId);\n            emit ChangeLiquidity(\n                msg.sender,\n                lowerTick,\n                upperTick,\n                amount0,\n                amount1,\n                liquidity,\n                true\n            );\n        }\n    }\n\n    /// @dev Burn some liquidity And Collect include Fee\n    function burn(uint256 tokenId, uint128 _liquidity)\n        public\n        onlyWhiteList\n        returns (\n            uint256 amount0,\n            uint256 amount1,\n            uint256 fee0,\n            uint256 fee1\n        )\n    {\n        if (_liquidity > 0) {\n            address nftOwner = positionManager.ownerOf(tokenId);\n            require(msg.sender == nftOwner, \"not owner\");\n            (fee0, fee1) = _burnLiquidity(tokenId, _liquidity);\n            // Collect\n            (amount0, amount1) = _collect(\n                tokenId,\n                nftOwner,\n                type(uint128).max,\n                type(uint128).max\n            );\n            fee0 = amount0 - fee0;\n            fee1 = amount1 - fee1;\n        }\n    }\n\n    function burnAll(uint256 tokenId)\n        external\n        onlyWhiteList\n        returns (\n            uint256 amount0,\n            uint256 amount1,\n            uint256 fee0,\n            uint256 fee1\n        )\n    {\n        // Read Liq\n        (uint128 liquidity, , ) = PositionNFTUtil._positionInfo(tokenId);\n        (amount0, amount1, fee0, fee1) = burn(tokenId, liquidity);\n        // Burn UToken\n        positionManager.burn(tokenId);\n    }\n\n    function _approve(\n        address poolAddress,\n        uint256 amt0,\n        uint256 amt1\n    ) internal {\n        IUniswapV3Pool pool = IUniswapV3Pool(poolAddress);\n        if (amt0 > 0) {\n            IERC20(pool.token0()).approve(address(positionManager), amt0);\n        }\n        if (amt1 > 0) {\n            IERC20(pool.token1()).approve(address(positionManager), amt1);\n        }\n    }\n\n    function _pay(\n        address token0,\n        address token1,\n        uint256 amt0,\n        uint256 amt1\n    ) internal {\n        IERC20(token0).safeTransferFrom(msg.sender, address(this), amt0);\n        IERC20(token1).safeTransferFrom(msg.sender, address(this), amt1);\n    }\n\n    function _mintPay(\n        IUniswapV3Pool pool,\n        uint256 amt0,\n        uint256 amt1\n    ) internal {\n        IERC20(pool.token0()).safeTransferFrom(msg.sender, address(this), amt0);\n        IERC20(pool.token1()).safeTransferFrom(msg.sender, address(this), amt1);\n    }\n\n    function _back(uint256 tokenId) internal {\n        (, NftInfo memory nftInfo) = _positionInfo(tokenId);\n        IERC20 token0 = IERC20(nftInfo.token0);\n        IERC20 token1 = IERC20(nftInfo.token1);\n        uint256 amt0 = token0.balanceOf(address(this));\n        uint256 amt1 = token1.balanceOf(address(this));\n        if (amt0 > 0) {\n            token0.safeTransfer(msg.sender, amt0);\n        }\n        if (amt1 > 0) {\n            token1.safeTransfer(msg.sender, amt1);\n        }\n    }\n\n    function getLiquidityForAmounts(\n        IUniswapV3Pool pool,\n        int24 lowerTick,\n        int24 upperTick,\n        uint256 balance0,\n        uint256 balance1\n    ) internal view returns (uint128 liquidity) {\n        // Calculate Liquidity\n        (uint160 sqrtRatioX96, , , , , , ) = pool.slot0();\n        liquidity = LiquidityAmounts.getLiquidityForAmounts(\n            sqrtRatioX96,\n            TickMath.getSqrtRatioAtTick(lowerTick),\n            TickMath.getSqrtRatioAtTick(upperTick),\n            balance0,\n            balance1\n        );\n    }\n\n    event ChangeLiquidity(\n        address indexed vaultAddress,\n        int24 lowerTick,\n        int24 upperTick,\n        uint256 amount0,\n        uint256 amount1,\n        uint128 liquidity,\n        bool add\n    );\n}\n",
  "sourcePath": "/Users/corn/Projects/universe/UniverseV2/contracts/PositionNFTManager.sol",
  "compiler": {
    "name": "solc",
    "version": "0.7.6+commit.7338295f.Emscripten.clang"
  },
  "schemaVersion": "3.4.7",
  "updatedAt": "2022-05-07T16:19:11.332Z",
  "devdoc": {
    "kind": "dev",
    "methods": {
      "addAll(uint256,uint256,uint256)": {
        "details": "amount0Min & amount1Min avoid revert of uniswapV3.mint()"
      },
      "burn(uint256,uint128)": {
        "details": "Burn some liquidity And Collect include Fee"
      },
      "mintAll(address,uint256,uint256,int24,int24,address)": {
        "details": "amount0Min & amount1Min avoid revert of uniswapV3.mint()"
      },
      "owner()": {
        "details": "Returns the address of the current owner."
      },
      "renounceOwnership()": {
        "details": "Leaves the contract without owner. It will not be possible to call `onlyOwner` functions anymore. Can only be called by the current owner. NOTE: Renouncing ownership will leave the contract without an owner, thereby removing any functionality that is only available to the owner."
      },
      "transferOwnership(address)": {
        "details": "Transfers ownership of the contract to a new account (`newOwner`). Can only be called by the current owner."
      }
    },
    "version": 1
  },
  "userdoc": {
    "kind": "user",
    "methods": {},
    "version": 1
  }
}