{
  "contractName": "TokenDistributor",
  "abi": [
    {
      "inputs": [],
      "stateMutability": "nonpayable",
      "type": "constructor"
    },
    {
      "anonymous": false,
      "inputs": [
        {
          "indexed": false,
          "internalType": "address",
          "name": "rewardToken",
          "type": "address"
        },
        {
          "indexed": false,
          "internalType": "address",
          "name": "account",
          "type": "address"
        },
        {
          "indexed": false,
          "internalType": "uint256",
          "name": "amount",
          "type": "uint256"
        }
      ],
      "name": "ClaimRewards",
      "type": "event"
    },
    {
      "anonymous": false,
      "inputs": [
        {
          "indexed": true,
          "internalType": "address",
          "name": "previousOwner",
          "type": "address"
        },
        {
          "indexed": true,
          "internalType": "address",
          "name": "newOwner",
          "type": "address"
        }
      ],
      "name": "OwnershipTransferred",
      "type": "event"
    },
    {
      "anonymous": false,
      "inputs": [
        {
          "indexed": false,
          "internalType": "address",
          "name": "sender",
          "type": "address"
        },
        {
          "indexed": false,
          "internalType": "address",
          "name": "rewardToken",
          "type": "address"
        },
        {
          "indexed": false,
          "internalType": "bytes32",
          "name": "merkleRoot",
          "type": "bytes32"
        }
      ],
      "name": "UpdateMerkleRoot",
      "type": "event"
    },
    {
      "inputs": [
        {
          "internalType": "address",
          "name": "",
          "type": "address"
        },
        {
          "internalType": "address",
          "name": "",
          "type": "address"
        }
      ],
      "name": "claimedRewards",
      "outputs": [
        {
          "internalType": "uint256",
          "name": "",
          "type": "uint256"
        }
      ],
      "stateMutability": "view",
      "type": "function"
    },
    {
      "inputs": [
        {
          "internalType": "address",
          "name": "",
          "type": "address"
        }
      ],
      "name": "merkleRoots",
      "outputs": [
        {
          "internalType": "bytes32",
          "name": "",
          "type": "bytes32"
        }
      ],
      "stateMutability": "view",
      "type": "function"
    },
    {
      "inputs": [],
      "name": "owner",
      "outputs": [
        {
          "internalType": "address",
          "name": "",
          "type": "address"
        }
      ],
      "stateMutability": "view",
      "type": "function"
    },
    {
      "inputs": [],
      "name": "renounceOwnership",
      "outputs": [],
      "stateMutability": "nonpayable",
      "type": "function"
    },
    {
      "inputs": [
        {
          "internalType": "address",
          "name": "newOwner",
          "type": "address"
        }
      ],
      "name": "transferOwnership",
      "outputs": [],
      "stateMutability": "nonpayable",
      "type": "function"
    },
    {
      "inputs": [
        {
          "internalType": "address",
          "name": "rewardToken",
          "type": "address"
        },
        {
          "internalType": "bytes32",
          "name": "merkleRoot",
          "type": "bytes32"
        }
      ],
      "name": "updateMerkleRoot",
      "outputs": [],
      "stateMutability": "nonpayable",
      "type": "function"
    },
    {
      "inputs": [
        {
          "internalType": "address",
          "name": "token",
          "type": "address"
        },
        {
          "internalType": "address",
          "name": "to",
          "type": "address"
        }
      ],
      "name": "emergencyWithdraw",
      "outputs": [],
      "stateMutability": "nonpayable",
      "type": "function"
    },
    {
      "inputs": [
        {
          "internalType": "address",
          "name": "rewardToken",
          "type": "address"
        },
        {
          "internalType": "address",
          "name": "account",
          "type": "address"
        },
        {
          "internalType": "uint256",
          "name": "totalAmount",
          "type": "uint256"
        },
        {
          "internalType": "bytes32[]",
          "name": "merkleProof",
          "type": "bytes32[]"
        }
      ],
      "name": "claim",
      "outputs": [],
      "stateMutability": "nonpayable",
      "type": "function"
    }
  ],
  "bytecode": "0x608060405234801561001057600080fd5b50600061001b61006a565b600080546001600160a01b0319166001600160a01b0383169081178255604051929350917f8be0079c531659141344cd1fd0a4f28419497f9722a3daafe3b4186f6b6457e0908290a35061006e565b3390565b610bad8061007d6000396000f3fe608060405234801561001057600080fd5b50600436106100885760003560e01c8063d1ab58f41161005b578063d1ab58f414610121578063e786818e1461014f578063f2fde38b1461017b578063fabed412146101a157610088565b80636382d9ad1461008d578063715018a6146100bd5780638da5cb5b146100c5578063ae9a6808146100e9575b600080fd5b6100bb600480360360408110156100a357600080fd5b506001600160a01b0381358116916020013516610231565b005b6100bb610402565b6100cd6104ae565b604080516001600160a01b039092168252519081900360200190f35b61010f600480360360208110156100ff57600080fd5b50356001600160a01b03166104bd565b60408051918252519081900360200190f35b61010f6004803603604081101561013757600080fd5b506001600160a01b03813581169160200135166104cf565b6100bb6004803603604081101561016557600080fd5b506001600160a01b0381351690602001356104ec565b6100bb6004803603602081101561019157600080fd5b50356001600160a01b03166105ae565b6100bb600480360360808110156101b757600080fd5b6001600160a01b038235811692602081013590911691604082013591908101906080810160608201356401000000008111156101f257600080fd5b82018360208201111561020457600080fd5b8035906020019184602083028401116401000000008311171561022657600080fd5b5090925090506106b0565b610239610970565b6001600160a01b031661024a6104ae565b6001600160a01b031614610293576040805162461bcd60e51b81526020600482018190526024820152600080516020610b34833981519152604482015290519081900360640190fd5b6001600160a01b038216600090815260016020526040902054156102f6576040805162461bcd60e51b815260206004820152601560248201527455706461746520746f205a65726f2046697273742160581b604482015290519081900360640190fd5b6000826001600160a01b03166370a08231306040518263ffffffff1660e01b815260040180826001600160a01b0316815260200191505060206040518083038186803b15801561034557600080fd5b505afa158015610359573d6000803e3d6000fd5b505050506040513d602081101561036f57600080fd5b5051905080156103fd57826001600160a01b031663a9059cbb83836040518363ffffffff1660e01b815260040180836001600160a01b0316815260200182815260200192505050602060405180830381600087803b1580156103d057600080fd5b505af11580156103e4573d6000803e3d6000fd5b505050506040513d60208110156103fa57600080fd5b50505b505050565b61040a610970565b6001600160a01b031661041b6104ae565b6001600160a01b031614610464576040805162461bcd60e51b81526020600482018190526024820152600080516020610b34833981519152604482015290519081900360640190fd5b600080546040516001600160a01b03909116907f8be0079c531659141344cd1fd0a4f28419497f9722a3daafe3b4186f6b6457e0908390a3600080546001600160a01b0319169055565b6000546001600160a01b031690565b60016020526000908152604090205481565b600260209081526000928352604080842090915290825290205481565b6104f4610970565b6001600160a01b03166105056104ae565b6001600160a01b03161461054e576040805162461bcd60e51b81526020600482018190526024820152600080516020610b34833981519152604482015290519081900360640190fd5b6001600160a01b038216600081815260016020908152604091829020849055815133815290810192909252818101839052517fedb83db29926ec99b1b03cfeabb2cd408c2dcdad373a7ef51fb45a8e4bf7e3f49181900360600190a15050565b6105b6610970565b6001600160a01b03166105c76104ae565b6001600160a01b031614610610576040805162461bcd60e51b81526020600482018190526024820152600080516020610b34833981519152604482015290519081900360640190fd5b6001600160a01b0381166106555760405162461bcd60e51b8152600401808060200182810382526026815260200180610aed6026913960400191505060405180910390fd5b600080546040516001600160a01b03808516939216917f8be0079c531659141344cd1fd0a4f28419497f9722a3daafe3b4186f6b6457e091a3600080546001600160a01b0319166001600160a01b0392909216919091179055565b6001600160a01b038516600090815260016020526040902054806107055760405162461bcd60e51b8152600401808060200182810382526024815260200180610b546024913960400191505060405180910390fd5b6000858560405160200180836001600160a01b031660601b8152601401828152602001925050506040516020818303038152906040528051906020012090506107848484808060200260200160405190810160405280939291908181526020018383602002808284376000920191909152508692508591506109749050565b6107bf5760405162461bcd60e51b8152600401808060200182810382526021815260200180610b136021913960400191505060405180910390fd5b6001600160a01b038088166000908152600260209081526040808320938a168352929052908120549061086c6107f58884610a1d565b604080516370a0823160e01b815230600482015290516001600160a01b038d16916370a08231916024808301926020929190829003018186803b15801561083b57600080fd5b505afa15801561084f573d6000803e3d6000fd5b505050506040513d602081101561086557600080fd5b5051610a7a565b9050801561091b5761087e8282610a92565b6001600160a01b03808b166000818152600260209081526040808320948e1680845294825280832095909555845163a9059cbb60e01b81526004810194909452602484018690529351919363a9059cbb936044808201949293918390030190829087803b1580156108ee57600080fd5b505af1158015610902573d6000803e3d6000fd5b505050506040513d602081101561091857600080fd5b50505b604080516001600160a01b03808c1682528a16602082015280820183905290517f9aa05b3d70a9e3e2f004f039648839560576334fb45c81f91b6db03ad9e2efc99181900360600190a1505050505050505050565b3390565b600081815b8551811015610a1257600086828151811061099057fe5b602002602001015190508083116109d75782816040516020018083815260200182815260200192505050604051602081830303815290604052805190602001209250610a09565b808360405160200180838152602001828152602001925050506040516020818303038152906040528051906020012092505b50600101610979565b509092149392505050565b600082821115610a74576040805162461bcd60e51b815260206004820152601e60248201527f536166654d6174683a207375627472616374696f6e206f766572666c6f770000604482015290519081900360640190fd5b50900390565b6000818310610a895781610a8b565b825b9392505050565b600082820183811015610a8b576040805162461bcd60e51b815260206004820152601b60248201527f536166654d6174683a206164646974696f6e206f766572666c6f770000000000604482015290519081900360640190fdfe4f776e61626c653a206e6577206f776e657220697320746865207a65726f20616464726573734d65726b6c654469737472696275746f723a20496e76616c69642070726f6f662e4f776e61626c653a2063616c6c6572206973206e6f7420746865206f776e65724e6f204d65726b6c65526f6f7420466f7220746869732052657761726420546f6b656e21a264697066735822122022849b7154b7f9df17798eb76ecd83eb389c868a6d0676cb39df5ad98f63cf6d64736f6c63430007060033",
  "immutableReferences": {},
  "source": "// SPDX-License-Identifier: BUSL-1.1\npragma solidity ^0.7.6;\n\n/*\n *        _   _   _  _     ___   __   __   ___     ___     ___     ___\n *       | | | | | \\| |   |_ _|  \\ \\ / /  | __|   | _ \\   / __|   | __|\n *       | |_| | | .` |    | |    \\ V /   | _|    |   /   \\__ \\   | _|\n *        \\___/  |_|\\_|   |___|   _\\_/_   |___|   |_|_\\   |___/   |___|\n *      _|\"\"\"\"\"|_|\"\"\"\"\"|_|\"\"\"\"\"|_| \"\"\"\"|_|\"\"\"\"\"|_|\"\"\"\"\"|_|\"\"\"\"\"|_|\"\"\"\"\"|\n *      \"`-0-0-'\"`-0-0-'\"`-0-0-'\"`-0-0-'\"`-0-0-'\"`-0-0-'\"`-0-0-'\"`-0-0-'\n *\n */\n\nimport \"@openzeppelin/contracts/access/Ownable.sol\";\nimport \"@openzeppelin/contracts/math/Math.sol\";\nimport \"@openzeppelin/contracts/math/SafeMath.sol\";\nimport \"@openzeppelin/contracts/cryptography/MerkleProof.sol\";\nimport \"../interfaces/ITokenDistributor.sol\";\n\ncontract TokenDistributor is ITokenDistributor, Ownable {\n    using SafeMath for uint256;\n\n    /// @inheritdoc ITokenDistributor\n    mapping(address => bytes32) public override merkleRoots;\n\n    /// @inheritdoc ITokenDistributor\n    mapping(address => mapping(address => uint256))\n        public\n        override claimedRewards;\n\n    constructor() {}\n\n    /* ========== ONLY OWNER ========== */\n\n    /// @inheritdoc ITokenDistributor\n    function updateMerkleRoot(address rewardToken, bytes32 merkleRoot)\n        external\n        override\n        onlyOwner\n    {\n        merkleRoots[rewardToken] = merkleRoot;\n        emit UpdateMerkleRoot(msg.sender, rewardToken, merkleRoot);\n    }\n\n    function emergencyWithdraw(address token, address to) external onlyOwner {\n        require(merkleRoots[token] == bytes32(0), \"Update to Zero First!\");\n        uint256 bal = IERC20(token).balanceOf(address(this));\n        if (bal > 0) {\n            IERC20(token).transfer(to, bal);\n        }\n    }\n\n    /* ========== EXTERNAL ========== */\n\n    /// @inheritdoc ITokenDistributor\n    function claim(\n        address rewardToken,\n        address account,\n        uint256 totalAmount,\n        bytes32[] calldata merkleProof\n    ) external override {\n        // Check Root\n        bytes32 merkleRoot = merkleRoots[rewardToken];\n        require(\n            merkleRoot != bytes32(0),\n            \"No MerkleRoot For this Reward Token!\"\n        );\n\n        // Verify the merkle proof.\n        bytes32 node = keccak256(abi.encodePacked(account, totalAmount));\n        require(\n            MerkleProof.verify(merkleProof, merkleRoot, node),\n            \"MerkleDistributor: Invalid proof.\"\n        );\n\n        // Calculate claimable amount\n        uint256 collected = claimedRewards[rewardToken][account];\n        uint256 claimable = Math.min(\n            totalAmount.sub(collected),\n            IERC20(rewardToken).balanceOf(address(this))\n        );\n\n        // send the token\n        if (claimable > 0) {\n            claimedRewards[rewardToken][account] = collected.add(claimable);\n            IERC20(rewardToken).transfer(account, claimable);\n        }\n\n        // EVENT\n        emit ClaimRewards(rewardToken, account, claimable);\n    }\n}\n",
  "sourcePath": "/Users/corn/Projects/universe/UniverseV2/contracts/TokenDistributor.sol",
  "compiler": {
    "name": "solc",
    "version": "0.7.6+commit.7338295f.Emscripten.clang"
  },
  "schemaVersion": "3.4.7",
  "updatedAt": "2022-05-06T14:32:58.138Z",
  "devdoc": {
    "kind": "dev",
    "methods": {
      "claim(address,address,uint256,bytes32[])": {
        "params": {
          "account": "The Address of User",
          "merkleProof": "Node Data For Approve",
          "rewardToken": "The rewardToken Address",
          "totalAmount": "The Accumulate Reward Amount"
        }
      },
      "owner()": {
        "details": "Returns the address of the current owner."
      },
      "renounceOwnership()": {
        "details": "Leaves the contract without owner. It will not be possible to call `onlyOwner` functions anymore. Can only be called by the current owner. NOTE: Renouncing ownership will leave the contract without an owner, thereby removing any functionality that is only available to the owner."
      },
      "transferOwnership(address)": {
        "details": "Transfers ownership of the contract to a new account (`newOwner`). Can only be called by the current owner."
      },
      "updateMerkleRoot(address,bytes32)": {
        "params": {
          "merkleRoot": "The MerkleRoot Data",
          "rewardToken": "The rewardToken Address"
        }
      }
    },
    "stateVariables": {
      "claimedRewards": {
        "params": {
          "account": "The Address of User",
          "rewardToken": "The rewardToken Address"
        },
        "return": "Collected RewardToken Amount"
      },
      "merkleRoots": {
        "params": {
          "rewardToken": "The rewardToken Address"
        },
        "return": "MerkleRoot"
      }
    },
    "version": 1
  },
  "userdoc": {
    "events": {
      "ClaimRewards(address,address,uint256)": {
        "notice": "Get the share\\amount0\\amount1 info based of quantity of deposit amounts"
      },
      "UpdateMerkleRoot(address,address,bytes32)": {
        "notice": "Get the share\\amount0\\amount1 info based of quantity of deposit amounts"
      }
    },
    "kind": "user",
    "methods": {
      "claim(address,address,uint256,bytes32[])": {
        "notice": "Claim Reward to A User"
      },
      "claimedRewards(address,address)": {
        "notice": "Get Collected RewardToken Amount by A User"
      },
      "merkleRoots(address)": {
        "notice": "Get MerkleRoot related to reward token"
      },
      "updateMerkleRoot(address,bytes32)": {
        "notice": "Update MerkleRoot Data"
      }
    },
    "version": 1
  }
}