{
  "contractName": "UniversePairVaultDelegate",
  "abi": [
    {
      "inputs": [
        {
          "internalType": "address",
          "name": "_vaultAddress",
          "type": "address"
        },
        {
          "internalType": "address payable",
          "name": "_timelock",
          "type": "address"
        },
        {
          "internalType": "bytes",
          "name": "_data",
          "type": "bytes"
        }
      ],
      "stateMutability": "nonpayable",
      "type": "constructor"
    },
    {
      "anonymous": false,
      "inputs": [
        {
          "indexed": true,
          "internalType": "address",
          "name": "previousOwner",
          "type": "address"
        },
        {
          "indexed": true,
          "internalType": "address",
          "name": "newOwner",
          "type": "address"
        }
      ],
      "name": "OwnershipTransferred",
      "type": "event"
    },
    {
      "anonymous": false,
      "inputs": [
        {
          "indexed": true,
          "internalType": "address",
          "name": "implementation",
          "type": "address"
        }
      ],
      "name": "Upgraded",
      "type": "event"
    },
    {
      "stateMutability": "payable",
      "type": "fallback"
    },
    {
      "inputs": [],
      "name": "UNIVERSE_VAULT_VERSION",
      "outputs": [
        {
          "internalType": "uint8",
          "name": "",
          "type": "uint8"
        }
      ],
      "stateMutability": "view",
      "type": "function"
    },
    {
      "inputs": [],
      "name": "owner",
      "outputs": [
        {
          "internalType": "address",
          "name": "",
          "type": "address"
        }
      ],
      "stateMutability": "view",
      "type": "function"
    },
    {
      "inputs": [],
      "name": "renounceOwnership",
      "outputs": [],
      "stateMutability": "nonpayable",
      "type": "function"
    },
    {
      "inputs": [],
      "name": "timelock",
      "outputs": [
        {
          "internalType": "contract TimelockController",
          "name": "",
          "type": "address"
        }
      ],
      "stateMutability": "view",
      "type": "function"
    },
    {
      "inputs": [
        {
          "internalType": "address",
          "name": "newOwner",
          "type": "address"
        }
      ],
      "name": "transferOwnership",
      "outputs": [],
      "stateMutability": "nonpayable",
      "type": "function"
    },
    {
      "stateMutability": "payable",
      "type": "receive"
    },
    {
      "inputs": [
        {
          "internalType": "address",
          "name": "_vaultAddress",
          "type": "address"
        }
      ],
      "name": "upgrade",
      "outputs": [],
      "stateMutability": "nonpayable",
      "type": "function"
    }
  ],
  "bytecode": "0x60806040523480156200001157600080fd5b5060405162000c5a38038062000c5a833981810160405260608110156200003757600080fd5b815160208301516040808501805191519395929483019291846401000000008211156200006357600080fd5b9083019060208201858111156200007957600080fd5b82516401000000008111828201881017156200009457600080fd5b82525081516020918201929091019080838360005b83811015620000c3578181015183820152602001620000a9565b50505050905090810190601f168015620000f15780820380516001836020036101000a031916815260200191505b50604052505050828160006200010c620001ae60201b60201c565b600080546001600160a01b0319166001600160a01b0383169081178255604051929350917f8be0079c531659141344cd1fd0a4f28419497f9722a3daafe3b4186f6b6457e0908290a3506200016182620001b2565b80511562000182576200018082826200022960201b620004061760201c565b505b5050600180546001600160a01b0319166001600160a01b03939093169290921790915550620004159050565b3390565b620001c8816200025860201b620004321760201c565b620002055760405162461bcd60e51b815260040180806020018281038252603681526020018062000bfe6036913960400191505060405180910390fd5b7f360894a13ba1a3210667c828492db98dca3e2076cc3735a920a3ca505d382bbc55565b606062000251838360405180606001604052806027815260200162000bd7602791396200025e565b9392505050565b3b151590565b60606200026b8462000258565b620002a85760405162461bcd60e51b815260040180806020018281038252602681526020018062000c346026913960400191505060405180910390fd5b600080856001600160a01b0316856040518082805190602001908083835b60208310620002e75780518252601f199092019160209182019101620002c6565b6001836020036101000a038019825116818451168082178552505050505050905001915050600060405180830381855af49150503d806000811462000349576040519150601f19603f3d011682016040523d82523d6000602084013e6200034e565b606091505b509092509050620003618282866200036b565b9695505050505050565b606083156200037c57508162000251565b8251156200038d5782518084602001fd5b8160405162461bcd60e51b81526004018080602001828103825283818151815260200191508051906020019080838360005b83811015620003d9578181015183820152602001620003bf565b50505050905090810190601f168015620004075780820380516001836020036101000a031916815260200191505b509250505060405180910390fd5b6107b280620004256000396000f3fe6080604052600436106100595760003560e01c80630900f01014610070578063715018a6146100a35780638da5cb5b146100b8578063d33219b4146100e9578063e323ba3f146100fe578063f2fde38b1461012957610068565b366100685761006661015c565b005b61006661015c565b34801561007c57600080fd5b506100666004803603602081101561009357600080fd5b50356001600160a01b0316610176565b3480156100af57600080fd5b50610066610211565b3480156100c457600080fd5b506100cd6102cf565b604080516001600160a01b039092168252519081900360200190f35b3480156100f557600080fd5b506100cd6102de565b34801561010a57600080fd5b506101136102ed565b6040805160ff9092168252519081900360200190f35b34801561013557600080fd5b506100666004803603602081101561014c57600080fd5b50356001600160a01b03166102f2565b610164610174565b61017461016f610438565b61045d565b565b6001600160a01b0381166101ba576040805162461bcd60e51b815260206004808301919091526024820152635a45524f60e01b604482015290519081900360640190fd5b6001546001600160a01b03163314610205576040805162461bcd60e51b81526020600482015260096024820152683337b93134b23232b760b91b604482015290519081900360640190fd5b61020e81610481565b50565b6102196104c1565b6001600160a01b031661022a6102cf565b6001600160a01b031614610285576040805162461bcd60e51b815260206004820181905260248201527f4f776e61626c653a2063616c6c6572206973206e6f7420746865206f776e6572604482015290519081900360640190fd5b600080546040516001600160a01b03909116907f8be0079c531659141344cd1fd0a4f28419497f9722a3daafe3b4186f6b6457e0908390a3600080546001600160a01b0319169055565b6000546001600160a01b031690565b6001546001600160a01b031681565b600281565b6102fa6104c1565b6001600160a01b031661030b6102cf565b6001600160a01b031614610366576040805162461bcd60e51b815260206004820181905260248201527f4f776e61626c653a2063616c6c6572206973206e6f7420746865206f776e6572604482015290519081900360640190fd5b6001600160a01b0381166103ab5760405162461bcd60e51b81526004018080602001828103825260268152602001806106d46026913960400191505060405180910390fd5b600080546040516001600160a01b03808516939216917f8be0079c531659141344cd1fd0a4f28419497f9722a3daafe3b4186f6b6457e091a3600080546001600160a01b0319166001600160a01b0392909216919091179055565b606061042b83836040518060600160405280602781526020016106fa602791396104c5565b9392505050565b3b151590565b7f360894a13ba1a3210667c828492db98dca3e2076cc3735a920a3ca505d382bbc5490565b3660008037600080366000845af43d6000803e80801561047c573d6000f35b3d6000fd5b61048a816105c7565b6040516001600160a01b038216907fbc7cd75a20ee27fd9adebab32041f755214dbc6bffa90cc0225b39da2e5c2d3b90600090a250565b3390565b60606104d084610432565b61050b5760405162461bcd60e51b81526004018080602001828103825260268152602001806107576026913960400191505060405180910390fd5b600080856001600160a01b0316856040518082805190602001908083835b602083106105485780518252601f199092019160209182019101610529565b6001836020036101000a038019825116818451168082178552505050505050905001915050600060405180830381855af49150503d80600081146105a8576040519150601f19603f3d011682016040523d82523d6000602084013e6105ad565b606091505b50915091506105bd82828661062f565b9695505050505050565b6105d081610432565b61060b5760405162461bcd60e51b81526004018080602001828103825260368152602001806107216036913960400191505060405180910390fd5b7f360894a13ba1a3210667c828492db98dca3e2076cc3735a920a3ca505d382bbc55565b6060831561063e57508161042b565b82511561064e5782518084602001fd5b8160405162461bcd60e51b81526004018080602001828103825283818151815260200191508051906020019080838360005b83811015610698578181015183820152602001610680565b50505050905090810190601f1680156106c55780820380516001836020036101000a031916815260200191505b509250505060405180910390fdfe4f776e61626c653a206e6577206f776e657220697320746865207a65726f2061646472657373416464726573733a206c6f772d6c6576656c2064656c65676174652063616c6c206661696c65645570677261646561626c6550726f78793a206e657720696d706c656d656e746174696f6e206973206e6f74206120636f6e7472616374416464726573733a2064656c65676174652063616c6c20746f206e6f6e2d636f6e7472616374a2646970667358221220b90534c4f8a9a18f2e3211df685426b7867f8aee2212ce0d2ccaeb727b959d4f64736f6c63430007060033416464726573733a206c6f772d6c6576656c2064656c65676174652063616c6c206661696c65645570677261646561626c6550726f78793a206e657720696d706c656d656e746174696f6e206973206e6f74206120636f6e7472616374416464726573733a2064656c65676174652063616c6c20746f206e6f6e2d636f6e7472616374",
  "immutableReferences": {},
  "source": "// SPDX-License-Identifier: BUSL-1.1\n\npragma solidity ^0.7.6;\n\n/*\n *        _   _   _  _     ___   __   __   ___     ___     ___     ___\n *       | | | | | \\| |   |_ _|  \\ \\ / /  | __|   | _ \\   / __|   | __|\n *       | |_| | | .` |    | |    \\ V /   | _|    |   /   \\__ \\   | _|\n *        \\___/  |_|\\_|   |___|   _\\_/_   |___|   |_|_\\   |___/   |___|\n *      _|\"\"\"\"\"|_|\"\"\"\"\"|_|\"\"\"\"\"|_| \"\"\"\"|_|\"\"\"\"\"|_|\"\"\"\"\"|_|\"\"\"\"\"|_|\"\"\"\"\"|\n *      \"`-0-0-'\"`-0-0-'\"`-0-0-'\"`-0-0-'\"`-0-0-'\"`-0-0-'\"`-0-0-'\"`-0-0-'\n *\n */\n\nimport \"@openzeppelin/contracts/access/Ownable.sol\";\nimport \"@openzeppelin/contracts/proxy/UpgradeableProxy.sol\";\nimport \"@openzeppelin/contracts/access/TimelockController.sol\";\nimport \"../interfaces/IUniverseVault.sol\";\nimport \"./UniversePairVaultStorage.sol\";\n\ncontract UniversePairVaultDelegate is\n    Ownable,\n    UpgradeableProxy,\n    UniversePairVaultBaseStorage\n{\n    constructor(\n        address _vaultAddress,\n        address payable _timelock,\n        bytes memory _data\n    ) UpgradeableProxy(_vaultAddress, _data) {\n        timelock = TimelockController(_timelock);\n    }\n\n    function upgrade(address _vaultAddress) external {\n        require(_vaultAddress != address(0), \"ZERO\");\n        require(msg.sender == address(timelock), \"forbidden\");\n        _upgradeTo(_vaultAddress);\n    }\n}\n",
  "sourcePath": "/Users/corn/Projects/universe/UniverseV2/contracts/UniversePairVaultDelegate.sol",
  "compiler": {
    "name": "solc",
    "version": "0.7.6+commit.7338295f.Emscripten.clang"
  },
  "schemaVersion": "3.4.7",
  "updatedAt": "2022-05-06T14:32:58.185Z",
  "devdoc": {
    "kind": "dev",
    "methods": {
      "owner()": {
        "details": "Returns the address of the current owner."
      },
      "renounceOwnership()": {
        "details": "Leaves the contract without owner. It will not be possible to call `onlyOwner` functions anymore. Can only be called by the current owner. NOTE: Renouncing ownership will leave the contract without an owner, thereby removing any functionality that is only available to the owner."
      },
      "transferOwnership(address)": {
        "details": "Transfers ownership of the contract to a new account (`newOwner`). Can only be called by the current owner."
      }
    },
    "version": 1
  },
  "userdoc": {
    "kind": "user",
    "methods": {},
    "version": 1
  }
}