{
  "contractName": "UniversePairVaultConfig",
  "abi": [
    {
      "inputs": [
        {
          "internalType": "address",
          "name": "_operator",
          "type": "address"
        }
      ],
      "stateMutability": "nonpayable",
      "type": "constructor"
    },
    {
      "anonymous": false,
      "inputs": [
        {
          "indexed": true,
          "internalType": "address",
          "name": "_operator",
          "type": "address"
        },
        {
          "indexed": false,
          "internalType": "address",
          "name": "rewardToken",
          "type": "address"
        },
        {
          "indexed": false,
          "internalType": "address",
          "name": "pool",
          "type": "address"
        },
        {
          "indexed": false,
          "internalType": "uint256",
          "name": "startTime",
          "type": "uint256"
        },
        {
          "indexed": false,
          "internalType": "uint256",
          "name": "endTime",
          "type": "uint256"
        },
        {
          "indexed": false,
          "internalType": "address",
          "name": "refundee",
          "type": "address"
        }
      ],
      "name": "AddIncentive",
      "type": "event"
    },
    {
      "anonymous": false,
      "inputs": [
        {
          "indexed": true,
          "internalType": "address",
          "name": "_operator",
          "type": "address"
        }
      ],
      "name": "ChangeManger",
      "type": "event"
    },
    {
      "anonymous": false,
      "inputs": [
        {
          "indexed": true,
          "internalType": "address",
          "name": "previousOwner",
          "type": "address"
        },
        {
          "indexed": true,
          "internalType": "address",
          "name": "newOwner",
          "type": "address"
        }
      ],
      "name": "OwnershipTransferred",
      "type": "event"
    },
    {
      "anonymous": false,
      "inputs": [
        {
          "indexed": true,
          "internalType": "address",
          "name": "_operator",
          "type": "address"
        },
        {
          "indexed": false,
          "internalType": "address",
          "name": "rewardToken",
          "type": "address"
        },
        {
          "indexed": false,
          "internalType": "address",
          "name": "pool",
          "type": "address"
        },
        {
          "indexed": false,
          "internalType": "uint256",
          "name": "startTime",
          "type": "uint256"
        },
        {
          "indexed": false,
          "internalType": "uint256",
          "name": "endTime",
          "type": "uint256"
        },
        {
          "indexed": false,
          "internalType": "address",
          "name": "refundee",
          "type": "address"
        }
      ],
      "name": "RemoveIncentive",
      "type": "event"
    },
    {
      "inputs": [],
      "name": "owner",
      "outputs": [
        {
          "internalType": "address",
          "name": "",
          "type": "address"
        }
      ],
      "stateMutability": "view",
      "type": "function"
    },
    {
      "inputs": [],
      "name": "renounceOwnership",
      "outputs": [],
      "stateMutability": "nonpayable",
      "type": "function"
    },
    {
      "inputs": [
        {
          "internalType": "address",
          "name": "newOwner",
          "type": "address"
        }
      ],
      "name": "transferOwnership",
      "outputs": [],
      "stateMutability": "nonpayable",
      "type": "function"
    },
    {
      "inputs": [
        {
          "internalType": "address",
          "name": "_operator",
          "type": "address"
        }
      ],
      "name": "changeManager",
      "outputs": [],
      "stateMutability": "nonpayable",
      "type": "function"
    },
    {
      "inputs": [
        {
          "internalType": "uint8",
          "name": "_performanceFee",
          "type": "uint8"
        },
        {
          "internalType": "uint24",
          "name": "_diffTick",
          "type": "uint24"
        },
        {
          "internalType": "address",
          "name": "_vaultAddress",
          "type": "address"
        }
      ],
      "name": "changePairVaultParam",
      "outputs": [],
      "stateMutability": "nonpayable",
      "type": "function"
    },
    {
      "inputs": [
        {
          "internalType": "address",
          "name": "vaultAddress",
          "type": "address"
        },
        {
          "components": [
            {
              "internalType": "contract IERC20Minimal",
              "name": "rewardToken",
              "type": "address"
            },
            {
              "internalType": "contract IUniswapV3Pool",
              "name": "pool",
              "type": "address"
            },
            {
              "internalType": "uint256",
              "name": "startTime",
              "type": "uint256"
            },
            {
              "internalType": "uint256",
              "name": "endTime",
              "type": "uint256"
            },
            {
              "internalType": "address",
              "name": "refundee",
              "type": "address"
            }
          ],
          "internalType": "struct IUniswapV3Staker.IncentiveKey",
          "name": "key",
          "type": "tuple"
        }
      ],
      "name": "addIncentive",
      "outputs": [],
      "stateMutability": "nonpayable",
      "type": "function"
    },
    {
      "inputs": [
        {
          "internalType": "address",
          "name": "vaultAddress",
          "type": "address"
        },
        {
          "components": [
            {
              "internalType": "contract IERC20Minimal",
              "name": "rewardToken",
              "type": "address"
            },
            {
              "internalType": "contract IUniswapV3Pool",
              "name": "pool",
              "type": "address"
            },
            {
              "internalType": "uint256",
              "name": "startTime",
              "type": "uint256"
            },
            {
              "internalType": "uint256",
              "name": "endTime",
              "type": "uint256"
            },
            {
              "internalType": "address",
              "name": "refundee",
              "type": "address"
            }
          ],
          "internalType": "struct IUniswapV3Staker.IncentiveKey",
          "name": "key",
          "type": "tuple"
        }
      ],
      "name": "removeIncentive",
      "outputs": [],
      "stateMutability": "nonpayable",
      "type": "function"
    },
    {
      "inputs": [
        {
          "internalType": "address",
          "name": "vaultAddress",
          "type": "address"
        }
      ],
      "name": "pairVaultParam",
      "outputs": [
        {
          "components": [
            {
              "internalType": "uint8",
              "name": "performanceFee",
              "type": "uint8"
            },
            {
              "internalType": "uint24",
              "name": "diffTick",
              "type": "uint24"
            }
          ],
          "internalType": "struct IUniversePairVaultConfig.PairVaultParam",
          "name": "param",
          "type": "tuple"
        }
      ],
      "stateMutability": "view",
      "type": "function"
    },
    {
      "inputs": [],
      "name": "performanceFee",
      "outputs": [
        {
          "internalType": "uint8",
          "name": "",
          "type": "uint8"
        }
      ],
      "stateMutability": "view",
      "type": "function"
    },
    {
      "inputs": [],
      "name": "diffTick",
      "outputs": [
        {
          "internalType": "uint24",
          "name": "",
          "type": "uint24"
        }
      ],
      "stateMutability": "view",
      "type": "function"
    },
    {
      "inputs": [
        {
          "internalType": "address",
          "name": "vaultAddress",
          "type": "address"
        }
      ],
      "name": "getIncentiveList",
      "outputs": [
        {
          "components": [
            {
              "internalType": "contract IERC20Minimal",
              "name": "rewardToken",
              "type": "address"
            },
            {
              "internalType": "contract IUniswapV3Pool",
              "name": "pool",
              "type": "address"
            },
            {
              "internalType": "uint256",
              "name": "startTime",
              "type": "uint256"
            },
            {
              "internalType": "uint256",
              "name": "endTime",
              "type": "uint256"
            },
            {
              "internalType": "address",
              "name": "refundee",
              "type": "address"
            }
          ],
          "internalType": "struct IUniswapV3Staker.IncentiveKey[]",
          "name": "",
          "type": "tuple[]"
        }
      ],
      "stateMutability": "view",
      "type": "function"
    },
    {
      "inputs": [
        {
          "internalType": "address",
          "name": "vaultAddress",
          "type": "address"
        },
        {
          "internalType": "address",
          "name": "poolAddress",
          "type": "address"
        }
      ],
      "name": "findActiveIncentive",
      "outputs": [
        {
          "components": [
            {
              "internalType": "contract IERC20Minimal",
              "name": "rewardToken",
              "type": "address"
            },
            {
              "internalType": "contract IUniswapV3Pool",
              "name": "pool",
              "type": "address"
            },
            {
              "internalType": "uint256",
              "name": "startTime",
              "type": "uint256"
            },
            {
              "internalType": "uint256",
              "name": "endTime",
              "type": "uint256"
            },
            {
              "internalType": "address",
              "name": "refundee",
              "type": "address"
            }
          ],
          "internalType": "struct IUniswapV3Staker.IncentiveKey[]",
          "name": "activeList",
          "type": "tuple[]"
        }
      ],
      "stateMutability": "view",
      "type": "function"
    }
  ],
  "bytecode": "0x60c0604052600a608081905261012c60a0526004805460ff191690911763ffffff00191662012c0017905534801561003657600080fd5b50604051611211380380611211833981016040819052610055916100d2565b600061005f6100ce565b600080546001600160a01b0319166001600160a01b0383169081178255604051929350917f8be0079c531659141344cd1fd0a4f28419497f9722a3daafe3b4186f6b6457e0908290a350600180546001600160a01b0319166001600160a01b0392909216919091179055610100565b3390565b6000602082840312156100e3578081fd5b81516001600160a01b03811681146100f9578182fd5b9392505050565b6111028061010f6000396000f3fe608060405234801561001057600080fd5b50600436106100b45760003560e01c806394aeffc41161007157806394aeffc414610131578063a3fbbaae14610151578063b9b585e414610164578063de95c23214610177578063f2fde38b1461018a578063faa52c4a1461019d576100b4565b80634b30b41c146100b95780635e9e2e8d146100ce578063715018a6146100ec57806387788782146100f45780638da5cb5b1461010957806393fc461d1461011e575b600080fd5b6100cc6100c7366004610df2565b6101bd565b005b6100d661049d565b6040516100e39190611070565b60405180910390f35b6100cc6104b3565b6100fc610571565b6040516100e39190611080565b610111610584565b6040516100e39190610f2a565b6100cc61012c366004610e99565b610593565b61014461013f366004610dba565b610621565b6040516100e39190610f6e565b6100cc61015f366004610d97565b61084f565b6100cc610172366004610df2565b61090d565b610144610185366004610d97565b610ad2565b6100cc610198366004610d97565b610b84565b6101b06101ab366004610d97565b610c98565b6040516100e39190611051565b6001546001600160a01b031632146101f05760405162461bcd60e51b81526004016101e790611000565b60405180910390fd5b6001600160a01b0382166102165760405162461bcd60e51b81526004016101e790610fe2565b6001600160a01b038216600090815260036020526040902080548061024d5760405162461bcd60e51b81526004016101e790610fbc565b600061025884610caf565b9050600019820160005b838110156104945784818154811061027657fe5b60009182526020918290206040805160a081018252600590930290910180546001600160a01b03908116845260018201548116948401949094526002810154918301919091526003810154606083015260040154909116608082015295506102dd86610caf565b83141561048c5760405163110b500d60e01b81526001600160a01b0388169063110b500d90610310908990600401611043565b600060405180830381600087803b15801561032a57600080fd5b505af115801561033e573d6000803e3d6000fd5b5050875160208901516040808b015160608c015160808d015192513397507f5f6b25bc5a501ea7e8c63a33b825ccba1a01eb2d59f371b39f583aa11144c229965061038b95949390610f3e565b60405180910390a280821115610433578482815481106103a757fe5b90600052602060002090600502018582815481106103c157fe5b60009182526020909120825460059092020180546001600160a01b03199081166001600160a01b03938416178255600180850154908301805483169185169190911790556002808501549083015560038085015490830155600493840154939091018054909116929091169190911790555b8480548061043d57fe5b60008281526020812060056000199093019283020180546001600160a01b0319908116825560018201805482169055600282018390556003820192909255600401805490911690559055610494565b600101610262565b50505050505050565b6000806104a933610cdf565b6020015191505090565b6104bb610d4e565b6001600160a01b03166104cc610584565b6001600160a01b031614610527576040805162461bcd60e51b815260206004820181905260248201527f4f776e61626c653a2063616c6c6572206973206e6f7420746865206f776e6572604482015290519081900360640190fd5b600080546040516001600160a01b03909116907f8be0079c531659141344cd1fd0a4f28419497f9722a3daafe3b4186f6b6457e0908390a3600080546001600160a01b0319169055565b60008061057d33610cdf565b5191505090565b6000546001600160a01b031690565b6001546001600160a01b031632146105bd5760405162461bcd60e51b81526004016101e790611000565b6001600160a01b031660008181526002602081815260408084208151808301909252805460ff988916835262ffffff97881683850190815296909552929091525192519093166101000263ffffff00199290941660ff199091161716919091179055565b6001600160a01b0382166000908152600360209081526040808320805482518185028101850190935280835260609493849084015b828210156106c45760008481526020908190206040805160a0810182526005860290920180546001600160a01b039081168452600180830154821685870152600283015493850193909352600382015460608501526004909101541660808301529083529092019101610656565b5050505090506000815167ffffffffffffffff811180156106e457600080fd5b5060405190808252806020026020018201604052801561071e57816020015b61070b610d52565b8152602001906001900390816107035790505b509050600061072b610d52565b60005b84518110156107b15784818151811061074357fe5b60200260200101519150428260400151111580156107645750428260600151115b80156107855750866001600160a01b031682602001516001600160a01b0316145b156107a9578184848151811061079757fe5b60209081029190910101526001909201915b60010161072e565b508167ffffffffffffffff811180156107c957600080fd5b5060405190808252806020026020018201604052801561080357816020015b6107f0610d52565b8152602001906001900390816107e85790505b50945060005b828110156108445783818151811061081d57fe5b602002602001015186828151811061083157fe5b6020908102919091010152600101610809565b505050505092915050565b610857610d4e565b6001600160a01b0316610868610584565b6001600160a01b0316146108c3576040805162461bcd60e51b815260206004820181905260248201527f4f776e61626c653a2063616c6c6572206973206e6f7420746865206f776e6572604482015290519081900360640190fd5b600180546001600160a01b0319166001600160a01b0383169081179091556040517f0afcbf7c3742ee20488a08c0da12ca29b2e8bdd022bef6129efbf4e00f84a63090600090a250565b6001546001600160a01b031632146109375760405162461bcd60e51b81526004016101e790611000565b6001600160a01b03821661095d5760405162461bcd60e51b81526004016101e790610fe2565b806060015142106109805760405162461bcd60e51b81526004016101e79061101c565b6001600160a01b03808316600090815260036020818152604080842080546001818101835591865294839020875160059096020180549587166001600160a01b031996871617815592870151908301805491871691861691909117905585015160028201819055606086015192820192909255608085015160049091018054919094169216919091179091554210610a715760405163e9423e1f60e01b81526001600160a01b0383169063e9423e1f90610a3e908490600401611043565b600060405180830381600087803b158015610a5857600080fd5b505af1158015610a6c573d6000803e3d6000fd5b505050505b336001600160a01b03167f5050f14030e5a1f89ab8e4e39c684438d1699be58db5faee01220ae94b3693d582600001518360200151846040015185606001518660800151604051610ac6959493929190610f3e565b60405180910390a25050565b6001600160a01b0381166000908152600360209081526040808320805482518185028101850190935280835260609492939192909184015b82821015610b785760008481526020908190206040805160a0810182526005860290920180546001600160a01b039081168452600180830154821685870152600283015493850193909352600382015460608501526004909101541660808301529083529092019101610b0a565b5050505090505b919050565b610b8c610d4e565b6001600160a01b0316610b9d610584565b6001600160a01b031614610bf8576040805162461bcd60e51b815260206004820181905260248201527f4f776e61626c653a2063616c6c6572206973206e6f7420746865206f776e6572604482015290519081900360640190fd5b6001600160a01b038116610c3d5760405162461bcd60e51b81526004018080602001828103825260268152602001806110a76026913960400191505060405180910390fd5b600080546040516001600160a01b03808516939216917f8be0079c531659141344cd1fd0a4f28419497f9722a3daafe3b4186f6b6457e091a3600080546001600160a01b0319166001600160a01b0392909216919091179055565b610ca0610d80565b610ca982610cdf565b92915050565b600081604051602001610cc29190611043565b604051602081830303815290604052805190602001209050919050565b610ce7610d80565b506001600160a01b03811660009081526002602090815260409182902082518084019093525460ff81168352610100900462ffffff16908201819052610b7f5750506040805180820190915260045460ff81168252610100900462ffffff16602082015290565b3390565b6040805160a08101825260008082526020820181905291810182905260608101829052608081019190915290565b604080518082019091526000808252602082015290565b600060208284031215610da8578081fd5b8135610db38161108e565b9392505050565b60008060408385031215610dcc578081fd5b8235610dd78161108e565b91506020830135610de78161108e565b809150509250929050565b60008082840360c0811215610e05578283fd5b8335610e108161108e565b925060a0601f1982011215610e23578182fd5b5060405160a0810181811067ffffffffffffffff82111715610e4157fe5b6040526020840135610e528161108e565b81526040840135610e628161108e565b6020820152606084810135604083015260808501359082015260a0840135610e898161108e565b6080820152919491935090915050565b600080600060608486031215610ead578081fd5b833560ff81168114610ebd578182fd5b9250602084013562ffffff81168114610ed4578182fd5b91506040840135610ee48161108e565b809150509250925092565b80516001600160a01b039081168352602080830151821690840152604080830151908401526060808301519084015260809182015116910152565b6001600160a01b0391909116815260200190565b6001600160a01b039586168152938516602085015260408401929092526060830152909116608082015260a00190565b6020808252825182820181905260009190848201906040850190845b81811015610fb057610f9d838551610eef565b9284019260a09290920191600101610f8a565b50909695505050505050565b6020808252600c908201526b6e6f20496e63656e7469766560a01b604082015260600190565b6020808252600490820152637a65726f60e01b604082015260600190565b6020808252600290820152614f4d60f01b604082015260600190565b6020808252600d908201526c125b98d95b9d1a5d9948115b99609a1b604082015260600190565b60a08101610ca98284610eef565b815160ff16815260209182015162ffffff169181019190915260400190565b62ffffff91909116815260200190565b60ff91909116815260200190565b6001600160a01b03811681146110a357600080fd5b5056fe4f776e61626c653a206e6577206f776e657220697320746865207a65726f2061646472657373a26469706673582212200ab2ee82c10ef8c6fb03b235b08ecbabc75ee94c7c5b6d712f0319ed09ba898464736f6c63430007060033",
  "immutableReferences": {},
  "source": "// SPDX-License-Identifier: BUSL-1.1\n\npragma solidity ^0.7.6;\npragma abicoder v2;\n\n/*\n *        _   _   _  _     ___   __   __   ___     ___     ___     ___\n *       | | | | | \\| |   |_ _|  \\ \\ / /  | __|   | _ \\   / __|   | __|\n *       | |_| | | .` |    | |    \\ V /   | _|    |   /   \\__ \\   | _|\n *        \\___/  |_|\\_|   |___|   _\\_/_   |___|   |_|_\\   |___/   |___|\n *      _|\"\"\"\"\"|_|\"\"\"\"\"|_|\"\"\"\"\"|_| \"\"\"\"|_|\"\"\"\"\"|_|\"\"\"\"\"|_|\"\"\"\"\"|_|\"\"\"\"\"|\n *      \"`-0-0-'\"`-0-0-'\"`-0-0-'\"`-0-0-'\"`-0-0-'\"`-0-0-'\"`-0-0-'\"`-0-0-'\n *\n */\n\nimport \"@openzeppelin/contracts/access/Ownable.sol\";\nimport \"../interfaces/IUniversePairVaultConfig.sol\";\nimport \"../interfaces/IncentiveId.sol\";\nimport \"../interfaces/IUniswapV3Staker.sol\";\nimport \"../interfaces/IUniversePairVaultV2.sol\";\n\ncontract UniversePairVaultConfig is IUniversePairVaultConfig, Ownable {\n    // operate address\n    address operator;\n    /// @dev vaultAddress => pairVaultParam\n    mapping(address => PairVaultParam) private pairVaultParamMap;\n    /// @dev vaultAddress => Incentives\n    mapping(address => IUniswapV3Staker.IncentiveKey[])\n        private incentiveListMap;\n\n    PairVaultParam defaultParam =\n        PairVaultParam({performanceFee: 10, diffTick: 300});\n\n    constructor(address _operator) {\n        operator = _operator;\n    }\n\n    /* ========== MODIFIERS ========== */\n\n    /// @dev Only be called by the Operator\n    modifier onlyManager() {\n        require(tx.origin == operator, \"OM\");\n        _;\n    }\n\n    /* ========== ONLY OWNER ========== */\n\n    /// @inheritdoc IUniversePairVaultConfig\n    function changeManager(address _operator) external override onlyOwner {\n        // require(_operator != address(0), \"ZA\");\n        operator = _operator;\n        emit ChangeManger(_operator);\n    }\n\n    /* ========== ONLY MANAGER ========== */\n\n    /// @inheritdoc IUniversePairVaultConfig\n    function changePairVaultParam(\n        uint8 _performanceFee,\n        uint24 _diffTick,\n        address _vaultAddress\n    ) external override onlyManager {\n        PairVaultParam memory param = pairVaultParamMap[_vaultAddress];\n        param.performanceFee = _performanceFee;\n        param.diffTick = _diffTick;\n\n        pairVaultParamMap[_vaultAddress] = param;\n    }\n\n    /// @dev Without Check V3Pool and key.pool\n    /// @inheritdoc IUniversePairVaultConfig\n    function addIncentive(\n        address vaultAddress,\n        IUniswapV3Staker.IncentiveKey memory key\n    ) external override onlyManager {\n        // TODO storage incentiveId\n        require(vaultAddress != address(0), \"zero\");\n        require(block.timestamp < key.endTime, \"Incentive End\");\n        incentiveListMap[vaultAddress].push(key);\n        //the incentive begin\n        if (block.timestamp >= key.startTime) {\n            IUniversePairVaultV2(vaultAddress).nftStake(key);\n        }\n        emit AddIncentive(\n            msg.sender,\n            address(key.rewardToken),\n            address(key.pool),\n            key.startTime,\n            key.endTime,\n            key.refundee\n        );\n    }\n\n    /// @inheritdoc IUniversePairVaultConfig\n    function removeIncentive(\n        address vaultAddress,\n        IUniswapV3Staker.IncentiveKey memory key\n    ) external override onlyManager {\n        require(vaultAddress != address(0), \"zero\");\n        IUniswapV3Staker.IncentiveKey[]\n            storage incentiveList = incentiveListMap[vaultAddress];\n        uint256 length = incentiveList.length;\n        require(length > 0, \"no Incentive\");\n        bytes32 incentiveId = IncentiveId.compute(key);\n        uint256 lastIndex = length - 1;\n        for (uint256 i = 0; i < length; i++) {\n            key = incentiveList[i];\n            if (incentiveId == IncentiveId.compute(key)) {\n                IUniversePairVaultV2(vaultAddress).nftUnStake(key);\n                emit RemoveIncentive(\n                    msg.sender,\n                    address(key.rewardToken),\n                    address(key.pool),\n                    key.startTime,\n                    key.endTime,\n                    key.refundee\n                );\n                //after find id then copy zhe last element to current position\n                if (lastIndex > i) {\n                    incentiveList[i] = incentiveList[lastIndex];\n                }\n                incentiveList.pop();\n                break;\n            }\n        }\n    }\n\n    /* ========== GETTER ========== */\n\n    /// @inheritdoc IUniversePairVaultConfig\n    function pairVaultParam(address vaultAddress)\n        external\n        view\n        override\n        returns (PairVaultParam memory param)\n    {\n        param = _pairVaultParam(vaultAddress);\n    }\n\n    /// @inheritdoc IUniversePairVaultConfig\n    function performanceFee() external view override returns (uint8) {\n        PairVaultParam memory param = _pairVaultParam(msg.sender);\n        return param.performanceFee;\n    }\n\n    /// @inheritdoc IUniversePairVaultConfig\n    function diffTick() external view override returns (uint24) {\n        PairVaultParam memory param = _pairVaultParam(msg.sender);\n        return param.diffTick;\n    }\n\n    /// @inheritdoc IUniversePairVaultConfig\n    function getIncentiveList(address vaultAddress)\n        external\n        view\n        override\n        returns (IUniswapV3Staker.IncentiveKey[] memory)\n    {\n        return incentiveListMap[vaultAddress];\n    }\n\n    /// @inheritdoc IUniversePairVaultConfig\n    function findActiveIncentive(address vaultAddress, address poolAddress)\n        external\n        view\n        override\n        returns (IUniswapV3Staker.IncentiveKey[] memory activeList)\n    {\n        // Get Data From Storage\n        IUniswapV3Staker.IncentiveKey[] memory incentiveList = incentiveListMap[\n            vaultAddress\n        ];\n        // Temp\n        IUniswapV3Staker.IncentiveKey[]\n            memory tempList = new IUniswapV3Staker.IncentiveKey[](\n                incentiveList.length\n            );\n        uint256 number;\n        IUniswapV3Staker.IncentiveKey memory key;\n        for (uint256 i = 0; i < incentiveList.length; i++) {\n            key = incentiveList[i];\n            if (\n                key.startTime <= block.timestamp &&\n                key.endTime > block.timestamp &&\n                address(key.pool) == poolAddress\n            ) {\n                tempList[number] = key;\n                number++;\n            }\n        }\n        // Result\n        activeList = new IUniswapV3Staker.IncentiveKey[](number);\n        for (uint256 i = 0; i < number; i++) {\n            activeList[i] = tempList[i];\n        }\n    }\n\n    function _pairVaultParam(address vaultAddress)\n        internal\n        view\n        returns (PairVaultParam memory param)\n    {\n        param = pairVaultParamMap[vaultAddress];\n        if (param.diffTick == 0) {\n            param = defaultParam;\n        }\n    }\n\n    /* ========== EVENT ========== */\n\n    event ChangeManger(address indexed _operator);\n\n    event AddIncentive(\n        address indexed _operator,\n        address rewardToken,\n        address pool,\n        uint256 startTime,\n        uint256 endTime,\n        address refundee\n    );\n\n    event RemoveIncentive(\n        address indexed _operator,\n        address rewardToken,\n        address pool,\n        uint256 startTime,\n        uint256 endTime,\n        address refundee\n    );\n}\n",
  "sourcePath": "/Users/corn/Projects/universe/UniverseV2/contracts/UniversePairVaultConfig.sol",
  "compiler": {
    "name": "solc",
    "version": "0.7.6+commit.7338295f.Emscripten.clang"
  },
  "schemaVersion": "3.4.7",
  "updatedAt": "2022-05-06T14:32:58.179Z",
  "devdoc": {
    "kind": "dev",
    "methods": {
      "addIncentive(address,(address,address,uint256,uint256,address))": {
        "details": "Without Check V3Pool and key.pool",
        "params": {
          "key": "Incentive Key",
          "vaultAddress": "Address of Universe V3 Vault"
        }
      },
      "changeManager(address)": {
        "params": {
          "_operator": "Operator address"
        }
      },
      "findActiveIncentive(address,address)": {
        "params": {
          "poolAddress": "Address of UniswapV3 Pool",
          "vaultAddress": "Address of Universe V3 Vault"
        }
      },
      "getIncentiveList(address)": {
        "params": {
          "vaultAddress": "Address of Universe V3 Vault"
        }
      },
      "owner()": {
        "details": "Returns the address of the current owner."
      },
      "removeIncentive(address,(address,address,uint256,uint256,address))": {
        "params": {
          "key": "Incentive Key",
          "vaultAddress": "Address of Universe V3 Vault"
        }
      },
      "renounceOwnership()": {
        "details": "Leaves the contract without owner. It will not be possible to call `onlyOwner` functions anymore. Can only be called by the current owner. NOTE: Renouncing ownership will leave the contract without an owner, thereby removing any functionality that is only available to the owner."
      },
      "transferOwnership(address)": {
        "details": "Transfers ownership of the contract to a new account (`newOwner`). Can only be called by the current owner."
      }
    },
    "stateVariables": {
      "incentiveListMap": {
        "details": "vaultAddress => Incentives"
      },
      "pairVaultParamMap": {
        "details": "vaultAddress => pairVaultParam"
      }
    },
    "version": 1
  },
  "userdoc": {
    "kind": "user",
    "methods": {
      "addIncentive(address,(address,address,uint256,uint256,address))": {
        "notice": "Add Incentive"
      },
      "changeManager(address)": {
        "notice": "Set new operator address Only Operator"
      },
      "findActiveIncentive(address,address)": {
        "notice": "Find the Incentive which can join"
      },
      "getIncentiveList(address)": {
        "notice": "Find the Incentive"
      },
      "removeIncentive(address,(address,address,uint256,uint256,address))": {
        "notice": "Remove Incentive"
      }
    },
    "version": 1
  }
}