{
  "contractName": "Util",
  "abi": [
    {
      "inputs": [
        {
          "internalType": "address",
          "name": "_uniFactory",
          "type": "address"
        },
        {
          "internalType": "address",
          "name": "_poolAddress",
          "type": "address"
        },
        {
          "internalType": "address",
          "name": "_config",
          "type": "address"
        },
        {
          "internalType": "address",
          "name": "_nftManager",
          "type": "address"
        },
        {
          "internalType": "address",
          "name": "_operator",
          "type": "address"
        },
        {
          "internalType": "address",
          "name": "_swapPool",
          "type": "address"
        },
        {
          "internalType": "uint8",
          "name": "_performanceFee",
          "type": "uint8"
        },
        {
          "internalType": "uint24",
          "name": "_diffTick",
          "type": "uint24"
        }
      ],
      "name": "getParam",
      "outputs": [
        {
          "internalType": "bytes",
          "name": "param",
          "type": "bytes"
        }
      ],
      "stateMutability": "pure",
      "type": "function"
    },
    {
      "inputs": [
        {
          "internalType": "address",
          "name": "_operator",
          "type": "address"
        },
        {
          "internalType": "address",
          "name": "_poolAddress",
          "type": "address"
        },
        {
          "internalType": "address",
          "name": "_config",
          "type": "address"
        },
        {
          "internalType": "address",
          "name": "_nftManager",
          "type": "address"
        }
      ],
      "name": "getPairParam",
      "outputs": [
        {
          "internalType": "bytes",
          "name": "param",
          "type": "bytes"
        }
      ],
      "stateMutability": "pure",
      "type": "function"
    },
    {
      "inputs": [
        {
          "internalType": "address",
          "name": "_uniFactory",
          "type": "address"
        },
        {
          "internalType": "address",
          "name": "_poolAddress",
          "type": "address"
        },
        {
          "internalType": "address",
          "name": "_config",
          "type": "address"
        },
        {
          "internalType": "address",
          "name": "_nftManager",
          "type": "address"
        },
        {
          "internalType": "address",
          "name": "_operator",
          "type": "address"
        },
        {
          "internalType": "address",
          "name": "_swapPool",
          "type": "address"
        },
        {
          "internalType": "uint8",
          "name": "_performanceFee",
          "type": "uint8"
        },
        {
          "internalType": "uint24",
          "name": "_diffTick",
          "type": "uint24"
        }
      ],
      "name": "getParam2",
      "outputs": [
        {
          "internalType": "bytes",
          "name": "param",
          "type": "bytes"
        }
      ],
      "stateMutability": "pure",
      "type": "function"
    },
    {
      "inputs": [
        {
          "internalType": "address",
          "name": "_vaultAddress",
          "type": "address"
        }
      ],
      "name": "getUpgradeParam",
      "outputs": [
        {
          "internalType": "bytes",
          "name": "param",
          "type": "bytes"
        }
      ],
      "stateMutability": "pure",
      "type": "function"
    },
    {
      "inputs": [],
      "name": "getSenderAddress",
      "outputs": [
        {
          "internalType": "address",
          "name": "",
          "type": "address"
        }
      ],
      "stateMutability": "view",
      "type": "function"
    },
    {
      "inputs": [
        {
          "internalType": "int24",
          "name": "tick",
          "type": "int24"
        }
      ],
      "name": "getSqrtRatioAtTick",
      "outputs": [
        {
          "internalType": "uint160",
          "name": "",
          "type": "uint160"
        }
      ],
      "stateMutability": "pure",
      "type": "function"
    },
    {
      "inputs": [
        {
          "internalType": "int24",
          "name": "tick",
          "type": "int24"
        }
      ],
      "name": "getGasCostOfGetSqrtRatioAtTick",
      "outputs": [
        {
          "internalType": "uint256",
          "name": "",
          "type": "uint256"
        }
      ],
      "stateMutability": "view",
      "type": "function"
    },
    {
      "inputs": [
        {
          "internalType": "uint160",
          "name": "sqrtPriceX96",
          "type": "uint160"
        }
      ],
      "name": "getTickAtSqrtRatio",
      "outputs": [
        {
          "internalType": "int24",
          "name": "",
          "type": "int24"
        }
      ],
      "stateMutability": "pure",
      "type": "function"
    },
    {
      "inputs": [
        {
          "internalType": "uint160",
          "name": "sqrtPriceX96",
          "type": "uint160"
        }
      ],
      "name": "getGasCostOfGetTickAtSqrtRatio",
      "outputs": [
        {
          "internalType": "uint256",
          "name": "",
          "type": "uint256"
        }
      ],
      "stateMutability": "view",
      "type": "function"
    },
    {
      "inputs": [],
      "name": "MIN_SQRT_RATIO",
      "outputs": [
        {
          "internalType": "uint160",
          "name": "",
          "type": "uint160"
        }
      ],
      "stateMutability": "pure",
      "type": "function"
    },
    {
      "inputs": [],
      "name": "MAX_SQRT_RATIO",
      "outputs": [
        {
          "internalType": "uint160",
          "name": "",
          "type": "uint160"
        }
      ],
      "stateMutability": "pure",
      "type": "function"
    },
    {
      "inputs": [
        {
          "internalType": "uint256",
          "name": "a",
          "type": "uint256"
        },
        {
          "internalType": "uint256",
          "name": "b",
          "type": "uint256"
        },
        {
          "internalType": "uint256",
          "name": "c",
          "type": "uint256"
        }
      ],
      "name": "mulDiv",
      "outputs": [
        {
          "internalType": "uint256",
          "name": "",
          "type": "uint256"
        }
      ],
      "stateMutability": "pure",
      "type": "function"
    },
    {
      "inputs": [
        {
          "internalType": "address",
          "name": "swapPool",
          "type": "address"
        },
        {
          "internalType": "bool",
          "name": "zeroForOne",
          "type": "bool"
        },
        {
          "internalType": "uint256",
          "name": "_amountIn",
          "type": "uint256"
        },
        {
          "internalType": "address",
          "name": "to",
          "type": "address"
        },
        {
          "internalType": "int24",
          "name": "targetTick",
          "type": "int24"
        }
      ],
      "name": "swap",
      "outputs": [
        {
          "internalType": "int256",
          "name": "amount0",
          "type": "int256"
        },
        {
          "internalType": "int256",
          "name": "amount1",
          "type": "int256"
        }
      ],
      "stateMutability": "nonpayable",
      "type": "function"
    },
    {
      "inputs": [
        {
          "internalType": "int256",
          "name": "amount0Delta",
          "type": "int256"
        },
        {
          "internalType": "int256",
          "name": "amount1Delta",
          "type": "int256"
        },
        {
          "internalType": "bytes",
          "name": "",
          "type": "bytes"
        }
      ],
      "name": "uniswapV3SwapCallback",
      "outputs": [],
      "stateMutability": "nonpayable",
      "type": "function"
    }
  ],
  "bytecode": "0x608060405234801561001057600080fd5b506111fa806100206000396000f3fe608060405234801561001057600080fd5b50600436106100ea5760003560e01c8063986cfba31161008c578063b0622f6711610066578063b0622f6714610312578063eb725e8614610338578063ee8847ff14610398578063fa461e33146103a0576100ea565b8063986cfba314610297578063a7398eb4146102b7578063aa9a0912146102e9576100ea565b80635697b0dc116100c85780635697b0dc1461022b5780636d2cc3041461026957806372adfc26146100ef578063822f1bdd14610271576100ea565b8063171d9c57146100ef57806342948e18146101ca5780634f76c058146101ee575b600080fd5b610155600480360361010081101561010657600080fd5b5080356001600160a01b0390811691602081013582169160408201358116916060810135821691608082013581169160a08101359091169060c081013560ff169060e0013562ffffff1661041e565b6040805160208082528351818301528351919283929083019185019080838360005b8381101561018f578181015183820152602001610177565b50505050905090810190601f1680156101bc5780820380516001836020036101000a031916815260200191505b509250505060405180910390f35b6101d26104a6565b604080516001600160a01b039092168252519081900360200190f35b6102146004803603602081101561020457600080fd5b50356001600160a01b03166104aa565b6040805160029290920b8252519081900360200190f35b6101556004803603608081101561024157600080fd5b506001600160a01b0381358116916020810135821691604082013581169160600135166104bb565b6101d261051b565b6101556004803603602081101561028757600080fd5b50356001600160a01b0316610533565b6101d2600480360360208110156102ad57600080fd5b503560020b610578565b6102d7600480360360208110156102cd57600080fd5b503560020b610583565b60408051918252519081900360200190f35b6102d7600480360360608110156102ff57600080fd5b508035906020810135906040013561059c565b6102d76004803603602081101561032857600080fd5b50356001600160a01b03166105b3565b61037f600480360360a081101561034e57600080fd5b506001600160a01b03813581169160208101351515916040820135916060810135909116906080013560020b6105c2565b6040805192835260208301919091528051918290030190f35b6101d2610685565b61041c600480360360608110156103b657600080fd5b8135916020810135918101906060810160408201356401000000008111156103dd57600080fd5b8201836020820111156103ef57600080fd5b8035906020019184600183028401116401000000008311171561041157600080fd5b50909250905061068e565b005b604080516001600160a01b03998a16602482015297891660448901529588166064880152938716608487015291861660a48601529490941660c484015260ff90931660e483015262ffffff90921661010480830191909152825180830390910181526101249091019091526020810180516001600160e01b031663014f49ef60e11b17905290565b3390565b60006104b5826107ac565b92915050565b604080516001600160a01b03958616602482015293851660448501529184166064840152929092166084808301919091528251808303909101815260a49091019091526020810180516001600160e01b0316637c643b2f60e11b17905290565b73fffd8963efd1fc6a506488495d951d5263988d2690565b604080516001600160a01b0390921660248084019190915281518084039091018152604490920190526020810180516001600160e01b031662900f0160e41b17905290565b60006104b582610ad4565b6000805a905061059283610ad4565b505a900392915050565b60006105a9848484610e06565b90505b9392505050565b6000805a9050610592836107ac565b60008060006105d084610ad4565b60408051630251596160e31b81526001600160a01b0388811660048301528a15156024830152604482018a9052808416606483015260a06084830152600060a483018190528351949550908c169363128acb089360c4808501949193918390030190829087803b15801561064357600080fd5b505af1158015610657573d6000803e3d6000fd5b505050506040513d604081101561066d57600080fd5b50805160209091015190999098509650505050505050565b6401000276a390565b600084138061069d5750600083135b6106d7576040805162461bcd60e51b815260206004808301919091526024820152635a65726f60e01b604482015290519081900360640190fd5b33600085131561075d5761075d323387846001600160a01b0316630dfe16816040518163ffffffff1660e01b815260040160206040518083038186803b15801561072057600080fd5b505afa158015610734573d6000803e3d6000fd5b505050506040513d602081101561074a57600080fd5b50516001600160a01b0316929190610eb5565b60008413156107a5576107a5323386846001600160a01b031663d21220a76040518163ffffffff1660e01b815260040160206040518083038186803b15801561072057600080fd5b5050505050565b60006401000276a36001600160a01b038316108015906107e8575073fffd8963efd1fc6a506488495d951d5263988d266001600160a01b038316105b61081d576040805162461bcd60e51b81526020600482015260016024820152602960f91b604482015290519081900360640190fd5b640100000000600160c01b03602083901b166fffffffffffffffffffffffffffffffff811160071b81811c67ffffffffffffffff811160061b90811c63ffffffff811160051b90811c61ffff811160041b90811c60ff8111600390811b91821c600f811160021b90811c918211600190811b92831c979088119617909417909217179091171717608081106108ba57607f810383901c91506108c4565b80607f0383901b91505b908002607f81811c60ff83811c9190911c800280831c81831c1c800280841c81841c1c800280851c81851c1c800280861c81861c1c800280871c81871c1c800280881c81881c1c800280891c81891c1c8002808a1c818a1c1c8002808b1c818b1c1c8002808c1c818c1c1c8002808d1c818d1c1c8002808e1c9c81901c9c909c1c80029c8d901c9e9d607f198f0160401b60c09190911c678000000000000000161760c19b909b1c674000000000000000169a909a1760c29990991c672000000000000000169890981760c39790971c671000000000000000169690961760c49590951c670800000000000000169490941760c59390931c670400000000000000169290921760c69190911c670200000000000000161760c79190911c670100000000000000161760c89190911c6680000000000000161760c99190911c6640000000000000161760ca9190911c6620000000000000161760cb9190911c6610000000000000161760cc9190911c6608000000000000161760cd9190911c66040000000000001617693627a301d71055774c8581026f028f6481ab7f045a5af012a19d003aa9198101608090811d906fdb2df09e81959a81455e260799a0632f8301901d600281810b9083900b14610ac557886001600160a01b0316610aa982610ad4565b6001600160a01b03161115610abe5781610ac0565b805b610ac7565b815b9998505050505050505050565b60008060008360020b12610aeb578260020b610af3565b8260020b6000035b9050620d89e8811115610b31576040805162461bcd60e51b81526020600482015260016024820152601560fa1b604482015290519081900360640190fd5b600060018216610b4557600160801b610b57565b6ffffcb933bd6fad37aa2d162d1a5940015b70ffffffffffffffffffffffffffffffffff1690506002821615610b8b576ffff97272373d413259a46990580e213a0260801c5b6004821615610baa576ffff2e50f5f656932ef12357cf3c7fdcc0260801c5b6008821615610bc9576fffe5caca7e10e4e61c3624eaa0941cd00260801c5b6010821615610be8576fffcb9843d60f6159c9db58835c9266440260801c5b6020821615610c07576fff973b41fa98c081472e6896dfb254c00260801c5b6040821615610c26576fff2ea16466c96a3843ec78b326b528610260801c5b6080821615610c45576ffe5dee046a99a2a811c461f1969c30530260801c5b610100821615610c65576ffcbe86c7900a88aedcffc83b479aa3a40260801c5b610200821615610c85576ff987a7253ac413176f2b074cf7815e540260801c5b610400821615610ca5576ff3392b0822b70005940c7a398e4b70f30260801c5b610800821615610cc5576fe7159475a2c29b7443b29c7fa6e889d90260801c5b611000821615610ce5576fd097f3bdfd2022b8845ad8f792aa58250260801c5b612000821615610d05576fa9f746462d870fdf8a65dc1f90e061e50260801c5b614000821615610d25576f70d869a156d2a1b890bb3df62baf32f70260801c5b618000821615610d45576f31be135f97d08fd981231505542fcfa60260801c5b62010000821615610d66576f09aa508b5b7a84e1c677de54f3e99bc90260801c5b62020000821615610d86576e5d6af8dedb81196699c329225ee6040260801c5b62040000821615610da5576d2216e584f5fa1ea926041bedfe980260801c5b62080000821615610dc2576b048a170391f7dc42444e8fa20260801c5b60008460020b1315610ddd578060001981610dd957fe5b0490505b640100000000810615610df1576001610df4565b60005b60ff16602082901c0192505050919050565b6000808060001985870986860292508281109083900303905080610e3c5760008411610e3157600080fd5b5082900490506105ac565b808411610e4857600080fd5b6000848688096000868103871696879004966002600389028118808a02820302808a02820302808a02820302808a02820302808a02820302808a02909103029181900381900460010186841190950394909402919094039290920491909117919091029150509392505050565b604080516001600160a01b0380861660248301528416604482015260648082018490528251808303909101815260849091019091526020810180516001600160e01b03166323b872dd60e01b179052610f0f908590610f15565b50505050565b6000610f6a826040518060400160405280602081526020017f5361666545524332303a206c6f772d6c6576656c2063616c6c206661696c6564815250856001600160a01b0316610fcb9092919063ffffffff16565b805190915015610fc657808060200190516020811015610f8957600080fd5b5051610fc65760405162461bcd60e51b815260040180806020018281038252602a81526020018061119b602a913960400191505060405180910390fd5b505050565b60606105a9848460008585610fdf856110f0565b611030576040805162461bcd60e51b815260206004820152601d60248201527f416464726573733a2063616c6c20746f206e6f6e2d636f6e7472616374000000604482015290519081900360640190fd5b600080866001600160a01b031685876040518082805190602001908083835b6020831061106e5780518252601f19909201916020918201910161104f565b6001836020036101000a03801982511681845116808217855250505050505090500191505060006040518083038185875af1925050503d80600081146110d0576040519150601f19603f3d011682016040523d82523d6000602084013e6110d5565b606091505b50915091506110e58282866110f6565b979650505050505050565b3b151590565b606083156111055750816105ac565b8251156111155782518084602001fd5b8160405162461bcd60e51b81526004018080602001828103825283818151815260200191508051906020019080838360005b8381101561115f578181015183820152602001611147565b50505050905090810190601f16801561118c5780820380516001836020036101000a031916815260200191505b509250505060405180910390fdfe5361666545524332303a204552433230206f7065726174696f6e20646964206e6f742073756363656564a2646970667358221220100844d57a3af8bdc4f2f15482e5537538cc7a5bbd92613e2956ecf369a91c9764736f6c63430007060033",
  "immutableReferences": {},
  "source": "// SPDX-License-Identifier: MIT\npragma solidity ^0.7.6;\n\nimport \"@uniswap/v3-core/contracts/libraries/TickMath.sol\";\nimport \"@uniswap/v3-core/contracts/libraries/FullMath.sol\";\nimport \"@uniswap/v3-core/contracts/interfaces/IUniswapV3Factory.sol\";\nimport \"@uniswap/v3-core/contracts/interfaces/IUniswapV3Pool.sol\";\nimport \"@openzeppelin/contracts/token/ERC20/IERC20.sol\";\nimport \"@openzeppelin/contracts/token/ERC20/SafeERC20.sol\";\n\ncontract Util {\n    using SafeERC20 for IERC20;\n\n    function getParam(\n        address _uniFactory,\n        address _poolAddress,\n        address _config,\n        address _nftManager,\n        address _operator,\n        address _swapPool,\n        uint8 _performanceFee,\n        uint24 _diffTick\n    ) external pure returns (bytes memory param) {\n        bytes4 methodId = bytes4(\n            keccak256(\n                \"initialize(address,address,address,address,address,address,uint8,uint24)\"\n            )\n        );\n        param = abi.encodeWithSelector(\n            methodId,\n            _uniFactory,\n            _poolAddress,\n            _config,\n            _nftManager,\n            _operator,\n            _swapPool,\n            _performanceFee,\n            _diffTick\n        );\n    }\n\n    function getPairParam(\n        address _operator,\n        address _poolAddress,\n        address _config,\n        address _nftManager\n    ) external pure returns (bytes memory param) {\n        bytes4 methodId = bytes4(\n            keccak256(\"initialize(address,address,address,address)\")\n        );\n        param = abi.encodeWithSelector(\n            methodId,\n            _operator,\n            _poolAddress,\n            _config,\n            _nftManager\n        );\n    }\n\n    function getParam2(\n        address _uniFactory,\n        address _poolAddress,\n        address _config,\n        address _nftManager,\n        address _operator,\n        address _swapPool,\n        uint8 _performanceFee,\n        uint24 _diffTick\n    ) external pure returns (bytes memory param) {\n        param = abi.encodeWithSignature(\n            \"initialize(address,address,address,address,address,address,uint8,uint24)\",\n            _uniFactory,\n            _poolAddress,\n            _config,\n            _nftManager,\n            _operator,\n            _swapPool,\n            _performanceFee,\n            _diffTick\n        );\n    }\n\n    function getUpgradeParam(address _vaultAddress)\n        external\n        pure\n        returns (bytes memory param)\n    {\n        bytes4 methodId = bytes4(keccak256(\"upgrade(address)\"));\n        param = abi.encodeWithSelector(methodId, _vaultAddress);\n    }\n\n    function getSenderAddress() external view returns (address) {\n        return msg.sender;\n    }\n\n    function getSqrtRatioAtTick(int24 tick) external pure returns (uint160) {\n        return TickMath.getSqrtRatioAtTick(tick);\n    }\n\n    function getGasCostOfGetSqrtRatioAtTick(int24 tick)\n        external\n        view\n        returns (uint256)\n    {\n        uint256 gasBefore = gasleft();\n        TickMath.getSqrtRatioAtTick(tick);\n        return gasBefore - gasleft();\n    }\n\n    function getTickAtSqrtRatio(uint160 sqrtPriceX96)\n        external\n        pure\n        returns (int24)\n    {\n        return TickMath.getTickAtSqrtRatio(sqrtPriceX96);\n    }\n\n    function getGasCostOfGetTickAtSqrtRatio(uint160 sqrtPriceX96)\n        external\n        view\n        returns (uint256)\n    {\n        uint256 gasBefore = gasleft();\n        TickMath.getTickAtSqrtRatio(sqrtPriceX96);\n        return gasBefore - gasleft();\n    }\n\n    function MIN_SQRT_RATIO() external pure returns (uint160) {\n        return TickMath.MIN_SQRT_RATIO;\n    }\n\n    function MAX_SQRT_RATIO() external pure returns (uint160) {\n        return TickMath.MAX_SQRT_RATIO;\n    }\n\n    function mulDiv(\n        uint256 a,\n        uint256 b,\n        uint256 c\n    ) external pure returns (uint256) {\n        return FullMath.mulDiv(a, b, c);\n    }\n\n    function swap(\n        address swapPool,\n        bool zeroForOne,\n        uint256 _amountIn,\n        address to,\n        int24 targetTick\n    ) external returns (int256 amount0, int256 amount1) {\n        //ticksqrtPriceLimitX96\n        uint160 sqrtPriceLimitX96 = TickMath.getSqrtRatioAtTick(targetTick);\n        (amount0, amount1) = IUniswapV3Pool(swapPool).swap(\n            to,\n            zeroForOne,\n            int256(_amountIn),\n            sqrtPriceLimitX96,\n            \"\"\n        );\n    }\n\n    function uniswapV3SwapCallback(\n        int256 amount0Delta,\n        int256 amount1Delta,\n        bytes calldata\n    ) external {\n        require(amount0Delta > 0 || amount1Delta > 0, \"Zero\");\n        IUniswapV3Pool pool = IUniswapV3Pool(msg.sender);\n        if (amount0Delta > 0) {\n            IERC20(pool.token0()).safeTransferFrom(\n                tx.origin,\n                msg.sender,\n                uint256(amount0Delta)\n            );\n        }\n        if (amount1Delta > 0) {\n            IERC20(pool.token1()).safeTransferFrom(\n                tx.origin,\n                msg.sender,\n                uint256(amount1Delta)\n            );\n        }\n    }\n}\n",
  "sourcePath": "/Users/corn/Projects/universe/UniverseV2/contracts/test/Util.sol",
  "compiler": {
    "name": "solc",
    "version": "0.7.6+commit.7338295f.Emscripten.clang"
  },
  "schemaVersion": "3.4.7",
  "updatedAt": "2022-05-06T14:32:58.260Z",
  "devdoc": {
    "kind": "dev",
    "methods": {},
    "version": 1
  },
  "userdoc": {
    "kind": "user",
    "methods": {},
    "version": 1
  }
}